:020000040800F2
:10000000D00F0020C50100083F2A0008ED2200089B
:100010003D2A0008F9080008752F000800000000BC
:10002000000000000000000000000000312B00086C
:10003000C509000800000000412A0008332B000811
:10004000DF010008DF010008DF010008DF01000810
:10005000DF010008DF010008DF010008DF01000800
:10006000DF010008DF010008DF010008DF010008F0
:10007000DF010008DF010008DF010008DF010008E0
:10008000DF010008DF010008C5070008DF010008E4
:10009000DF010008DF010008DF010008DF010008C0
:1000A000DF010008DF010008DF010008DF010008B0
:1000B000DF010008DD2B0008DF010008DF01000878
:1000C000DF010008DF010008DF010008DF01000890
:1000D000DF010008692F0008DF010008DF010008C8
:1000E000DF010008DF010008DF010008DF01000870
:1000F000DF010008DF010008DF010008DF01000860
:10010000DF010008DF010008DF010008DF0100084F
:10011000DF010008DF010008DF010008DF0100083F
:10012000FD080008DF01000809090008DF010008D8
:10013000DF010008DF010008DF010008DF0100081F
:10014000DF010008DF010008DF010008DF0100080F
:10015000DF010008DF01000815090008DF010008C1
:10016000DF010008DF010008DF010008DF010008EF
:10017000DF010008DF010008DF01000800000000C7
:10018000DF010008DF010008DF010008DF010008CF
:10019000DF010008DF010008DF010008DF010008BF
:1001A000DF010008DF010008DF010008DFF810D0E0
:1001B00000F0AEFA0048004719300008AFF30080A5
:1001C000D00F00200648804706480047FEE7FEE7BC
:1001D000FEE7FEE7FEE7FEE7FEE7FEE7FEE7FEE7F7
:1001E000C12B0008AD0100082DE9F05F0546002095
:1001F00092469B4688460646814640241BE0284698
:1002000041464746224600F0CCF953465A46C01AAA
:10021000914110D311461846224600F0B3F92D1A29
:1002200067EB01084F4622460120002100F0AAF9A1
:1002300017EB00094E41201EA4F10104DFDC484603
:1002400031462A464346BDE8F09FD2B201E000F8AD
:10025000012B491EFBD270470022F6E710B513466A
:100260000A4604461946FFF7F0FF204610BD2DE967
:10027000FE4F804681EA0300C00F0C46009021F03B
:10028000004123F00045B8EB0200A94105D24046E9
:10029000214690461C460B46024623F00040104380
:1002A00047D0270DC7F30A00C3F30A510290401A42
:1002B000019040286BDAC3F3130040F4801B0098D0
:1002C000924620B10023D2EB030A63EB0B0B01989B
:1002D0005946C0F14002504600F054F906460D461A
:1002E00050465946019A00F06CF910EB0800614144
:1002F000002487EA115284EAE7731A4340D0009A37
:1003000062B3019A012A4FEA075215DC001B61EB28
:1003100002014FF0004202EA0752CDE90042001C00
:1003200041F5801132462B4600F0A3F903B0BDE839
:10033000F08F40462146F9E7001B61EB0201001CEB
:1003400041F5801300185B412018A2F5001747EB18
:10035000030140EAD570B6196D4111E06D084FEA0E
:10036000360645EAC0754FEA0752001B61EB0201F1
:10037000001C41F5801149084FEA30000019514135
:1003800032462B4603B0BDE8F04F00F063B9009849
:10039000012240000023D0EB020263EBE0730098DF
:1003A00021464FEAE074B8EB000061EB0401E9E795
:1003B00083F000435BE781F0004158E72DE9FE4FF1
:1003C00081EA030404F0004421F0004100944FF05E
:1003D000000B23F0004350EA01045ED052EA03040C
:1003E0005BD0C3F30A54C1F30A552C44A4F2F3348E
:1003F0000194A0FB0254C1F3130141F48011C3F333
:10040000130343F4801301FB024400FB034E840AF0
:10041000970A44EA815447EA8357A4FB0768029588
:100420008D0A05FB07854FEA932C04FB0C54270526
:10043000029D4FEA065847EA1637B5EB08056EEB02
:10044000070C870E920E47EA811742EA8312A7FB38
:100450000201B6EB0B0164EB00042B0D43EA0C33F5
:100460005E1844EB1C50DA465146E7FB0201C5F327
:1004700013044FEA0B3343EA14534FEA0432019C4E
:1004800043EA0603A4F10C040294009CCDE900B4F5
:1004900000F0EFF803B0BDE8F08F00200146F9E767
:1004A0000EB540F2334102910021CDE900110A4618
:1004B0000B4600F0DEF803B000BDC1F30A5210B5E0
:1004C000C1F3130140F2FF3341F480119A4201DA83
:1004D000002010BD40F233439A42A2F2334203DCC3
:1004E000524200F05EF810BD904010BD30B5041EC1
:1004F00071F1000404DB4FF00044404264EB010161
:10050000141E73F1000405DB1C464FF000435242F9
:1005100063EB04038B4208BF824230BD30B5041E3A
:1005200071F1000404DB4FF00044404264EB010130
:10053000141E73F1000405DB1C464FF000435242C9
:1005400063EB0403994208BF904230BD01F00043C1
:1005500030B421F0004150EA010206D00A0DA2F5A4
:100560006072C1F31301002A02DC30BC0020704726
:10057000440F44EAC104C100E01830BC00EBC25093
:1005800000F031B8202A04DB203A00FA02F1002002
:1005900070479140C2F1200320FA03F319439040C1
:1005A0007047202A04DB203A21FA02F0002170472C
:1005B00021FA02F3D040C2F12002914008431946CB
:1005C0007047202A06DBCB17203A41FA02F043EAB3
:1005D000E07306E041FA02F3D040C2F120029140FC
:1005E0000843194670470029A8BF7047401C4900BE
:1005F00008BF20F00100704710B4B0FA80FC00FA88
:100600000CF050EA010404BF10BC704749B1CCF1B2
:10061000200421FA04F411FA0CF118BF012121433E
:100620000843A3EB0C01CB1D4FEA00614FEA1020F9
:1006300042BF002010BC704700EBC350104400299B
:10064000A4BF10BC7047401C490008BF20F0010047
:1006500010BC704710B5141E73F1000408DA401C7A
:1006600041F1000192185B411A4301D120F00100D1
:1006700010BD2DE9F04D92469B4611B1B1FA81F2C1
:1006800002E0B0FA80F220329046FFF77BFF04468A
:100690000F4640EA0A0041EA0B0153465A46084316
:1006A00013D0114653EA010019D0C8F14002504658
:1006B000FFF777FF05460E46504659464246FFF77C
:1006C00061FF084305D0012004E020463946BDE81B
:1006D000F08D0020054346EAE0762C4337430A9824
:1006E0006305E40AA0EB08000022FD0A44EA47542F
:1006F0000A3002D500200146E9E7010510196941D9
:10070000DDE9084500196941BDE8F04DA2E70000A8
:10071000064C074D06E0E06840F0010394E807004E
:1007200098471034AC42F6D3FFF744FD105500084B
:100730003055000810B50146806B026C12F0500F66
:1007400005D0026CD20626D500F0F4F910BD016C7C
:1007500041F40071016401688A6812F0405F17D1AA
:10076000027EAAB9CA6A12F4700F02D08A685205D2
:100770000ED44A6822F020024A60016C21F4807194
:100780000164016CC90403D4016C41F001010164EE
:1007900000F0CEF910BD806BC26CBDE81040084679
:1007A000104710B5806B40210164416C41F0040199
:1007B000416400F0BFF910BD10B5806B00F0B9F9CD
:1007C00010BD0000014800F0B6B9000090090020FB
:1007D000464910B54A6822F440324A604A68436884
:1007E0001A434A6001684A6822F480724A600168CC
:1007F0004A68036942EA03224A6001684A6822F0B3
:1008000040724A6001684A6883681A434A60016816
:100810008A6822F400628A6001688A68C3681A43A1
:100820008A60816A6FF07062D14201688A6822F042
:1008300070628A6001688A680CD0836A1A438A6091
:1008400001688A6822F040528A6001688A68C36A37
:100850001A4301E022F040528A6001688A6822F05F
:1008600002028A6001688A68037E42EA43028A6063
:1008700090F82010002901684A680FD042F4006205
:100880004A6001684A6822F460424A6001684A6826
:10089000174C436A04EB43331A4301E022F400622D
:1008A0004A600168CA6A22F47002CA620168CA6AB0
:1008B000838B104C04EB03531A43CA6201688A68A5
:1008C00022F400728A6001688A6890F8303042EA47
:1008D00043228A6001688A6822F480628A60016823
:1008E0008A68406942EA8020886010BD0023014088
:1008F00000E0FFFF0000F0FFFEE70000014800F00D
:10090000E3BA0000D8090020014800F0DDBA000079
:10091000100B0020014800F0D7BA0000700B002037
:1009200001681823CAB2103AB2FBF3F2054B6FF319
:100930000901032A9B5CC36500D9091D816508462E
:1009400070470000EE54000810B5014600208B6986
:100950008A6A4FF0C07453B1B3F5005F15D072B11D
:10096000012A0CD0022A0AD0032A09D104E01AB1C4
:10097000012A06D0022A03D1C96AC90100D5012083
:1009800010BDC96AA142FAD010BD002AF7D0012AD1
:10099000F2D0022AF3D0032AF3D010BD30B5046898
:1009A000256825F480252560046863608368402BF2
:1009B000036803D099600068C26030BD9A60006827
:1009C000C16030BD704770477047000078B50024A3
:1009D000009490F83C20012A19D0012280F83C2094
:1009E0000A6807230568092A13D9EE680A3A02EB58
:1009F000420293409E43EE600B788A680A3B03EB09
:100A000043039A400368DD682A43DA6010E002205D
:100A100078BD2E6902EB420293409E432E610B7813
:100A20008A6803EB43039A4003681D692A431A61ED
:100A30004A681F23072A13D205686E6B521E02EB09
:100A4000820293409E436E630A8893B20A79521ED3
:100A500002EB820293400268556B2B43536327E0FD
:100A600005680D2A12D22E6BD21F02EB8202934030
:100A70009E432E630B790A88DB1F92B203EB83033C
:100A80009A4003681D6B2A431A6311E0EE6A0D3A1F
:100A900002EB820293409E43EE620B790A880D3B83
:100AA00092B203EB83039A400368DD6A2A43DA6259
:100AB0001B4B0568194A9D420AD10D68122D07D1BA
:100AC000556825F400055560556845F48005556066
:100AD00005689D421DD1134D0B68AB4201D0112B0F
:100AE00017D1536823F480035360536843F4000321
:100AF00053600968A9420CD10B490C4A0968B1FB43
:100B0000F2F101EB8101490000E0491E009100294A
:100B1000FBD180F83C40002078BD0000002301405C
:100B200000200140120000102C00002040420F0065
:100B300070477047704770B50446006801684268A6
:100B4000C1F34001C2F3401251B34AB3216CC9064C
:100B500003D4216C41F400712164816811F0405F7D
:100B600017D1217EA9B9C16A11F4700F02D0816832
:100B700049050ED4416821F020014160206C20F429
:100B800080702064206CC00403D4206C40F001000D
:100B900020642046FFF7CCFF21686FF01200086048
:100BA000206801684268C1F38001C2F3C01289B3B2
:100BB00082B3216CC90603D4216C41F40051216435
:100BC000816811F4401F1ED1816B11F4401F02D0C7
:100BD0008168490517D44168490514D4816811F02A
:100BE000405F10D1217E71B9416821F080014160E0
:100BF000206C20F480502064206CC00503D4206C4D
:100C000040F0010020642046FFF7DEFE21686FF00F
:100C10000C00086020680168426811F0010FC2F3FF
:100C200080120ED06AB10068C0070AD0206C40F470
:100C300080302064204600F046F821686FF0010003
:100C40000860206801684268C1F34011C2F3806205
:100C500000290DD0002A0BD0616C41F002016164C3
:100C60006FF0200505602046FFF764FF20680560EF
:100C700070BD70B504004FF0000503D0206C002655
:100C800010B107E0012070BD204600F01DF8666439
:100C900084F83C60206CC00610D4206C20F488508E
:100CA00040F0020020642046FFF792FD6664206C4D
:100CB00020F0020040F00100206400E0012584F8EB
:100CC0003C60284670BD704770B586B0064614215A
:100CD0006846FFF7C1FA2249306888423DD1214871
:100CE0000025016841F480710160006800F48070A3
:100CF00005901C481438016841F004010160006847
:100D0000694600F004000590042000900320CDE91E
:100D10000105154800F04AFA154C1448C4E90005CD
:100D20000015A560C4E90350400060618000A06127
:100D30004011E0614002C4E90805204600F094F942
:100D400008B1FFF740FEB463002211461220A663EB
:100D500000F08AFB122000F079FB06B070BD0000A5
:100D60000020014044380240000802401064024064
:100D7000D8090020F8B50E4600210446009190F8ED
:100D80003C00012807D0012084F83C0020688368DB
:100D9000DB0702D011E00220F8BD836843F00103B5
:100DA00083603748374B0068B0FBF3F000EB40003E
:100DB00000E0401E00900028FBD120688368DB071C
:100DC0005CD0236C40F20165AB4343F48073236431
:100DD0004068400505D5206C20F4005040F4805058
:100DE0002064206CC00404D5606C20F006006064B0
:100DF00000E0616484F83C10A16B2448224DC86374
:100E0000A16B23480864A16B2248C86421686FF075
:100E1000220008602068416841F0806141602068DC
:100E2000816841F4807181602168134632464C31FB
:100E3000A06B00F083F968681749C006206806D0E7
:100E400088421BD1816811F0405F13D016E08842C0
:100E5000F8D0124A904203D1D1F80423D206F1D03F
:100E60000F4A90420AD1D1F8041301F01F01102952
:100E7000E8D303E0816841F0804181600020F8BD43
:100E80002C00002040420F000023014035070008DD
:100E9000B9070008A3070008002001400021014015
:100EA0000022014090F83510022903D080214165CD
:100EB00001207047052180F835100068016821F095
:100EC00001010160002070472DE9F84304464FF00E
:100ED0000009CDF8009063484FF41651A56D0068E5
:100EE000B0FBF1F72E6894F85C10082000FA01F1CD
:100EF00031420FD021680A6852070BD50A6822F0E8
:100F000004020A6094F85C108840A860606D40F0AC
:100F10000100606594F85C104FF0010808FA01F0D8
:100F2000304208D021684969090604D5A860606D7F
:100F300040F00200606594F85C1004208840304264
:100F400008D021680968890704D5A860606D40F061
:100F50000400606594F85C1010208840304218D07E
:100F600021680968090714D5A86020680168490349
:100F700004D50068000308D5A16C07E00168C90525
:100F800003D4016821F008010160216C09B12046F9
:100F9000884794F85C1020208840304231D0216886
:100FA0000968C9062DD5A86094F835000528206881
:100FB000016806D0490347D5006800031DD4616C61
:100FC0001CE021F0160101602068416921F08001D8
:100FD0004161206C08B9A06C20B12068016821F043
:100FE0000801016094F85C103F208840A86084F8F4
:100FF000349084F83580216D1FE0E16B09B1204603
:101000008847606D00282BD0606DC00714D0052084
:1010100084F835002068016821F001010160009822
:10102000401C0090B84203D820680068C007F6D181
:1010300084F8349084F83580E16C002910D001B038
:101040002046BDE8F04308470168C905D5D40168CA
:1010500021F01001016084F8349084F83580CCE7E9
:10106000BDE8F8832C0000202DE9F041044600F093
:101070008DF906465CB1002584F83450022084F8CE
:1010800035002068016821F0010101600DE00120B8
:10109000BDE8F08100F07AF9801B052805D92020F1
:1010A0006065032084F83500F2E720680068C00717
:1010B000F0D12268116820480140D4E901031843A7
:1010C000D4E903363343184363691843A3691843CB
:1010D000E3691843236A18430843616A042903D16A
:1010E000D4E90B1319430843106020684069666A0D
:1010F00020F0070130460E43012704280CD1A06AD6
:101100000643E06A40B12046FFF71EFC20B14020B4
:10111000606584F83570BAE7206846612046FFF7BD
:10112000FFFB94F85C203F2191408160656584F865
:1011300035700020ACE700003F8010F02DE9F04151
:101140000446866D90F83400002501280DD001205A
:1011500084F8340094F835700020012F07D084F80B
:10116000340002252846BDE8F0810220FBE7022773
:1011700084F8357060652046FFF710FC94F85C1029
:101180003F208840B0602068016841F0160101608E
:10119000206C20B12068016841F0080101602068DE
:1011A000016841F001010160DCE700002DE9F84F22
:1011B00000224FF0010803254FF00F0E0B6808FACC
:1011C00002F42340A3426ED14E68012E05D0022EB8
:1011D00003D0112E01D0122E12D186684FEA420C94
:1011E00005FA0CF7BE43CF6807FA0CF73743876060
:1011F0004668A6430C79C4F3001494403443446019
:10120000C668570005FA07FC8C6826EA0C06BC4045
:101210003443C4604C68022C01D0122C13D1D40882
:1012200000EB8404A346D4F8209054074FEAD46A14
:101230000EFA0AF629EA06090E6906FA0AF646EADD
:101240000906CBF8206004680E7924EA0C0406F045
:101250000306BE40264306604C68E4006FD53B4C55
:10126000266846F480462660246822F0030604F4CB
:1012700080440094364C3444A446D4F80848960779
:10128000360F0EFA06F7BC43324FB84201D10027A1
:101290002EE0314FB84201D1012729E02F4FB8424B
:1012A00002D1022724E04AE02D4FB84201D10327A2
:1012B0001EE02C4FB84201D1042719E02A4FB84252
:1012C00001D1052714E0294FB84201D106270FE0CC
:1012D000274FB84201D107270AE0264FB84201D173
:1012E000082705E0244FB84201D1092700E00A276A
:1012F000B7402743CCF80878204E34684F689C43A9
:10130000FF0300D51C4334601C4E361D34684F6803
:101310009C43BF0300D51C433460184E0836346824
:101320004F689C43FF0200D51C433460134E0C36BB
:1013300034684F689C43BF0200D51C433460521C84
:10134000102AFFF43BAFBDE8F88F0000443802409C
:10135000003001400000024000040240000802404A
:10136000000C02400010024000140240001802402D
:10137000001C02400020024000240240003C0140CA
:101380000AB1816170470904FBE7000001488068E9
:101390007047000020000020024881680278114454
:1013A00081607047200000200B4810B5016841F4AF
:1013B00000710160016841F480610160016841F4DD
:1013C00080710160032000F06FF8002000F006F843
:1013D00000F024F8002010BD003C024070B50D4D17
:1013E00004464FF47A712878B1FBF0F00A49096895
:1013F000B1FBF0F000F07AFC48B9102C07D20022C3
:101400002146501E00F030F800206C6070BD0120B5
:1014100070BD0000200000202C0000200A4808B504
:10142000016841F480410160006800F48040009050
:101430000548001F016841F080510160006800F01C
:101440008050009008BD000044380240002809DBAD
:1014500000F01F02012191404009800000F1E020CE
:10146000C0F8001170470000F0B40E4B1B680C462A
:10147000C3F30223C3F10705042D00D90425191D68
:10148000072901D2002300E0DB1E012606FA05F140
:10149000491E214099409E40761E16403143F0BCC3
:1014A00001F069BD0CED00E0064900F00702086894
:1014B0004FF6FF03184040EA0220034A1043086039
:1014C000704700000CED00E00000FA052DE9F8433C
:1014D0001748016841F0805101600068154F00F025
:1014E0008050012600903E64FFF750FF05464FF400
:1014F0007A78114C05E000BFFFF748FF401B4045DC
:101500000DD86068C003F7D57E64FFF73FFF05463E
:10151000464607E0FFF73AFF401BB04202D90320DE
:10152000BDE8F88360688003F4D50020F8E7000088
:101530004038024000000E42007000402DE9F047A4
:101540000E46050065D0DFF81481D8F80000F7B228
:1015500000F00F00B04207D288F80070D8F8000001
:1015600000F00F00B04254D128683D4C810712D5DD
:10157000400703D5206840F4E05020602878000739
:1015800003D5206840F4604020602068A96820F0FE
:10159000F000084320602878C0072DD030496868E3
:1015A0000839012812D0022813D0032811D0096865
:1015B000890700292DDA216821F003010143216008
:1015C000FFF7E4FE814641F2883A0EE0096889039C
:1015D000EFE709688901ECE7FFF7D8FEA0EB090106
:1015E000514502D90320BDE8F0872068696800F002
:1015F0000C00B0EB810FEFD1D8F80010404601F09D
:101600000F01B14207D90770006800F00F00B04227
:1016100001D00120E7E72878400705D52068E96870
:1016200020F4E050084320602878000706D52068A1
:10163000296920F4604040EAC100206000F038F8D9
:101640002168084AC1F30311515CC840064908608B
:1016500006480068FFF7C2FE0020C4E7003C0240D5
:1016600008380240F65400082C0000202400002016
:101670000448054900680968044AC1F38221515CA5
:10168000C84070472C00002008380240065500086A
:101690000448054900680968044AC1F34231515CB5
:1016A000C84070472C00002008380240065500084A
:1016B000154810B5006810F00C02144813D01449F6
:1016C000042A0FD0082A0ED10F4C241F2268236849
:1016D00002F03F025B0207D52068C0F38810A0FB30
:1016E000010106E0084610BD2168C1F38811A1FB85
:1016F00000010023FEF778FD2168C1F30141491C78
:101700004900B0FBF1F010BD083802400024F4009D
:1017100040787D012DE9F84F04006ED02078DFF885
:101720003C93C007A9F104054AD009F104000168FF
:10173000C1F38101012908D00068C0F381000228AB
:101740000AD1D9F80000400206D52868800337D5B1
:1017500060680028E1D033E06068B0F5803F10D0C9
:10176000B0F5A02F286810D020F4803028602868B9
:1017700020F4802028606068A8B1FFF707FE0646C5
:101780000DE0286840F48030F4E740F480202860C1
:10179000F7E700BFFFF7FAFD801B642873D82868BD
:1017A0008003F7D50CE0FFF7F1FD064605E000BF2A
:1017B000FFF7ECFD801B6428F0D828688003F7D47D
:1017C0002078DFF89C8280074FF0000A3ED5A348BE
:1017D000001D016811F00C0F08D00068C0F38100F3
:1017E00002280BD1D9F80000400207D428688007EE
:1017F00016D5E068012800D112E02BE1E068B8B10D
:101800000120C8F80000FFF7C1FD064605E000BF53
:10181000FFF7BCFD801B0228C0D828688007F7D5D9
:101820002868216920F0F80040EAC10028600DE036
:10183000C8F800A0FFF7AAFD064604E0FFF7A6FDE2
:10184000801B02281FD828688007F7D4207800075B
:1018500022D5824E83486169703671B101210160E1
:10186000FFF794FD074604E0FFF790FDC01B022838
:1018700009D830688007F7D50EE0C0F800A0FFF760
:1018800085FD074605E082E0FFF780FDC01B0228CA
:101890007DD830688007F7D42078400768D5DFF816
:1018A000BCB100270BF13C0BDBF80000C0000BD4EF
:1018B000DBF8001041F08051CBF80010DBF800009D
:1018C000012700F080500090674E3068C00510D4AA
:1018D000306840F480703060FFF758FD009005E0FC
:1018E000FFF754FD0099401A022850D83068C0050F
:1018F000F6D55A4EA0686C3601280FD005283068FE
:1019000010D020F001003060306820F0040030601A
:10191000A068B8B1FFF73AFD00900FE0306840F0E2
:101920000100F4E740F004003060F7E7FFF72EFD18
:101930000099411A41F28830814266D830688007A8
:10194000F4D50EE0FFF722FD009007E0FFF71EFD43
:101950000099411A41F28830814256D83068800798
:10196000F4D42FB1DBF8001021F08051CBF8001037
:10197000A069C8B33949091D0968C1F38101022969
:101980004AD00228504607D0C8F8600000E03CE08A
:10199000FFF7FCFC04463BE04746C8F86000FFF751
:1019A000F5FC064605E000BFFFF7F0FC801B0228AF
:1019B0002BD828688001F7D4D4E907010843A16A2D
:1019C0002A4A490802EB0141626A41EA821108434E
:1019D00094F82C1040EA0161C9F800100120386623
:1019E000FFF7D4FC044606E036E000BFFFF7CEFC6C
:1019F000001B022809D828688001F7D52CE000BF19
:101A0000FFF7C4FC001B022802D90320BDE8F88FB1
:101A100028688001F4D41FE00128F7D0D9F800002D
:101A2000E26900F48001914214D1226A00F03F0182
:101A300091420FD147F6C071626A0140914209D1CB
:101A4000A26A00F44031914204D1E16A00F0706072
:101A5000884201D00120D9E70020D7E704380240AE
:101A600000004742800E4742007000400000FFFF28
:101A700070B5040005D00025A56294F8510010B19E
:101A800006E0012070BD84F85050204600F030F888
:101A9000022084F851002068016821F040010160B3
:101AA000D4E901010843D4E90312114308436169F1
:101AB0000843218B01F400710843E1690843216A5E
:101AC0000843A16A084321680860A069042101EA6B
:101AD0001040616A0843216848602068C16921F4A8
:101AE0000061C1616565012084F85100002070BD6E
:101AF000F0B587B0044614216846FEF7ADFB1A49DD
:101B0000206888422DD11948016841F48011016094
:101B1000006800F48010059014481438016841F002
:101B200020010160016801F020010591016841F088
:101B3000800101600068022400F0800005904FF4ED
:101B400000700125032605278DE8F1006946084845
:101B5000FFF72CFB40208DE8F10069460548FFF7B0
:101B600025FB07B0F0BD00000050014044380240A2
:101B700000140240001C02402DE9F84F044690F882
:101B8000500000271D461646894601280DD04FF00B
:101B9000010B84F850B0FFF7F9FB804694F8510030
:101BA000BA46012804D002278EE00220BDE8F88F53
:101BB000B9F1000F7DD0002E7BD0032084F85100B6
:101BC000C4F854A0C4F83090A686E686C4F838A0BD
:101BD000A4F83CA0A4F83EA0C4F844A0C4F840A0D7
:101BE000A068B0F5004F04D12068016841F480413D
:101BF000016020680168490603D4016841F0400192
:101C00000160E068B0F5006F606803D030B3012E6A
:101C100024D040E008B1012E1CD1206B216800883F
:101C2000C86006E020688168890709D5216B0988AA
:101C3000C160206B801C2063E08E401EE08609E0BE
:101C4000FFF7A4FBA0EB0800A84202D3681C01D058
:101C500031E07DB3E08E0028E4D11FE0206B2168E5
:101C60000078087306E020688168890709D5216B30
:101C700009780173206B401C2063E08E401EE086D3
:101C800009E0FFF783FBA0EB0800A84202D3681C21
:101C900001D010E075B1E08E0028E4D1424629461B
:101CA000204600F0CFFE08B120206065A06820B17A
:101CB00007E008E0FFE7032706E02068C1688068C6
:101CC0000090606D00B1012784F851B084F850A0F5
:101CD00038466BE74FF0E0210428086903D020F074
:101CE00004000861704740F00400FAE710B5401E98
:101CF000B0F1807F01D3012010BD4FF0E02460617E
:101D00000F21601701F037F90020A0610720206142
:101D1000002010BD7047704770B590F83C20012A34
:101D200032D0012480F83C40022280F83D20036834
:101D30005A689D6822F070060A6832435A60134B55
:101D400002689A4214D0B2F1804F11D0104B9A42DF
:101D50000ED0104B9A420BD00F4B9A4208D00F4B2B
:101D60009A4205D00E4B9A4202D00E4B9A4204D1B1
:101D7000496825F080031943916080F83D400021B7
:101D800080F83C10084670BD022070BD0000014084
:101D90000004004000080040000C00400004014026
:101DA000004001400018004010B5040003D094F832
:101DB0003D0010B107E0012010BD002084F83C0078
:101DC000204600F00DF8022084F83D00211D206817
:101DD00000F00AFF012084F83D00002010BD000043
:101DE00008B500680B49884212D10B48016841F0E0
:101DF000020101600068002200F00200009011461C
:101E00001D20FFF731FBBDE808401D20FFF71EBB7A
:101E100008BD00000004004040380240022180F864
:101E20003D1001688A6802F00702062A03D00A689A
:101E300042F001020A60012180F83D100020704745
:101E400070B5044690F83C00012817D0012584F8AD
:101E50003C50022084F83D002068826822F077021E
:101E600022F47F4282600868502830D00DDC2028A0
:101E70004DD005DC98B310283BD148E0022070BD5E
:101E8000302844D0402834D139E0602828D0702848
:101E900006D0B0F5805F2CD0B0F5005F29D10AE004
:101EA000CB68D1E90121206800F002FF2068816839
:101EB00041F0770109E0CB68D1E90121206800F009
:101EC000F7FE2068816841F48041816011E0CA68B2
:101ED0004968206800F0FEFE5021206807E016E007
:101EE000CA684968206800F006FF6021206800F099
:101EF000E9FE84F83D50002084F83C0070BDCA68BB
:101F00004968206800F0E6FE40212068EFE722687B
:101F100001461046EBE7704770B50446006801695A
:101F20004FF00005C943890715D4C168C943890723
:101F300011D4E91E016101202077206880698007A3
:101F4000204602D0FFF7E7FF04E000F098F82046B3
:101F500000F096F8257720680169C943490717D42E
:101F6000C168C943490713D46FF00401016102201D
:101F700020772068806910F4407F204602D0FFF768
:101F8000CAFF04E000F07BF8204600F079F82577DE
:101F900020680169C943090716D4C168C943090704
:101FA00012D46FF008010161042020772068C06915
:101FB0008007204602D0FFF7AEFF04E000F05FF894
:101FC000204600F05DF8257720680169C943C906FD
:101FD00017D4C168C943C90613D46FF01001016159
:101FE000082020772068C06910F4407F204602D086
:101FF000FFF791FF04E000F042F8204600F040F8BF
:10200000257720680169C943C90708D1C168C94358
:10201000C90704D1891E0161204600F032F820680A
:102020000169C943090609D4C168C943090605D431
:102030006FF0800101612046FFF76CFE20680169A6
:10204000C943490609D4C168C943490605D46FF09C
:1020500040010161204600F015F820680169C9437C
:1020600089060BD4C168C943890607D46FF02001E3
:1020700001612046BDE87040FFF74DBE70BD70475E
:10208000704770477047704770B502680446106823
:10209000D168536910F00F0F52D003F0010501F41D
:1020A00090762E435FD0C20705D0CA0503D5E26BF8
:1020B00042F00102E263420705D5DA0703D0E26B82
:1020C00042F00202E263820705D5DA0703D0E26B31
:1020D00042F00402E263020707D501F020022A431E
:1020E00003D0E26B42F00802E263E26B002A33D0D5
:1020F000800604D5880602D5204600F024FE20681C
:102100004069E16BC0F38010090700D428B3204672
:1021100000F00BFE2068416949061AD5416921F09B
:1021200040014161606BA0B11B490165606BFEF726
:10213000B9FE002810D0606B016DBDE87040084703
:10214000830610D58B060ED52046BDE8704000F002
:10215000FABD2046FFF797FF70BD2046FFF793FFBB
:102160000020E06370BD030606D50B0604D52046AB
:10217000BDE8704000F0C6BE4006F3D54806F1D574
:10218000D168204621F04001D160202184F8391027
:1021900000F0ABF870BD00001B2D000870B5040006
:1021A00004D094F83900002510B106E0012070BD7C
:1021B00084F83850204600F023F8242084F83900B1
:1021C0002068C16821F40051C160204600F006FE7D
:1021D0002068016921F4904101612068416921F082
:1021E0002A0141612068C16841F40051C160E56382
:1021F000202084F8390084F83A00002070BD0000E7
:102200002DE9F04186B0064614216846FEF724F811
:1022100030493068884259D12F480024016841F084
:1022200010010160006800F0100005902A48143881
:10223000016841F0010101600068694600F0010099
:1022400005904FF4C06000900220CDE90104032006
:102250000390072004902148FEF7A8FF214D204855
:102260004FF000672860C5E901744FF48068C5E944
:1022700003486C61AC61EC612C6228466C62FEF72D
:10228000F3FE08B1FEF79FFB7563AE63154D14486E
:1022900060357830E5E802074020A5E811011148D3
:1022A00045F814496030AC61EC612C626C62FEF759
:1022B000DBFE08B1FEF787FB3563002211462520BF
:1022C000AE63FFF7D1F82520FFF7C0F806B0BDE8F0
:1022D000F08100000010014044380240000002403C
:1022E00040640240100B002070477047FEE72DE964
:1022F000F04104461D4616460F462A2000F034FAE7
:10230000204600F026FA304600F023FA2B2000F099
:102310002BFA384600F01DFA284600F01AFABDE8FC
:10232000F0412C2000F020BA2DE9FE4F161ACDE91D
:1023300000104FF000085D1A47464FF0FF30002EA6
:1023400002DD4FF0010102E003D14FF000018B46A6
:1023500002E08346C6F10006002D02DD4FF00100C9
:1023600002E003D14FF00000824602E08246C5F150
:102370000005AE4201DD344600E02C46601C4FF003
:102380000009029019E000980C9A81B2019880B27D
:1023900000F018F8B0442F44A04504DD0198A8EBE4
:1023A000040858440190A74203DD00983F1B5044A5
:1023B000009009F101001FFA80F902998945E2DBDA
:1023C000BDE8FE8F10B514460B460246FFF78FFF9F
:1023D0002046BDE8104000F0BCB92DE9F04780462A
:1023E0001F46581E83B21646501E82B20C46404607
:1023F000DDF82090FFF77BFF0AE0454604E0484601
:1024000000F0A7F96D1CADB2B542F8D3641CA4B2BC
:10241000BC42F2D3BDE8F08770B5684D4FF400546C
:10242000002221462846FEF7ABFF4FF4C87000F0AB
:10243000CBFD012221462846FEF7A2FFC82000F06E
:10244000C3FD642000F0C0FD112000F08DF978205C
:1024500000F0BAFD362000F087F9002000F098F96E
:102460003A2000F081F9052000F092F9B22000F046
:102470007BF90C2000F08CF90C2000F089F9002089
:1024800000F086F9332000F083F9332000F080F962
:10249000B72000F069F9352000F07AF9BB2000F090
:1024A00063F9192000F074F9C02000F05DF92C20C8
:1024B00000F06EF9C22000F057F9012000F068F931
:1024C000C32000F051F9122000F062F9C42000F09E
:1024D0004BF9202000F05CF9C62000F045F90F20F0
:1024E00000F056F9D02000F03FF9A42000F050F998
:1024F000A12000F04DF9E02000F036F9D02000F0E6
:1025000047F9042000F044F90D2000F041F91120B2
:1025100000F03EF9132000F03BF92B2000F038F9D1
:102520003F2000F035F9542000F032F94C2000F043
:102530002FF9182000F02CF90D2000F029F90B20BC
:1025400000F026F91F2000F023F9232000F020F9E5
:10255000E12000F009F9D02000F01AF9042000F081
:1025600017F90C2000F014F9112000F011F91320D4
:1025700000F00EF92C2000F00BF93F2000F008F9D4
:10258000442000F005F9512000F002F92F2000F05E
:10259000FFF81F2000F0FCF81F2000F0F9F82020C1
:1025A00000F0F6F8232000F0F3F8212000F0DCF82A
:1025B000BDE87040292000F0D7B80000001C0240A0
:1025C0002DE9FF4F81B00446DDE90F7B4FEA570844
:1025D00000904FEAD80000FB07FA203AD0B20390EF
:1025E000029802993844401E83B204EB0800401E52
:1025F00082B22046FFF77BFE002637E0102F24D062
:10260000202F35D11C49039801EB80105FF00005A5
:1026100010F80690BBF1000F4FF0010000FA05F032
:1026200000EA090016D020B12046049A0299FFF76B
:10263000C9FE641C0098A4B2211A414510D1029829
:10264000009C401C80B202900EE00C49039801EB04
:102650000010DBE708B1049800E00E9800F079F86C
:102660006D1CEDB2082DD5D3761CB6B25645C5D338
:1026700005B0BDE8F08F00008838000898320008E7
:102680002DE9FF4F83462DED020B83B0DFED210ACC
:10269000139F154620EE200A7E080024A246BCEEB9
:1026A000C00A10EE100A1FFA80F92DE0281B401E08
:1026B000C1B20A2000F0E8FDB9FBF0F00A21B0FB3E
:1026C000F1F201FB1208A81E84420ED1129A00FBFF
:1026D00006B08DE8840480B22E22089B0699FFF78D
:1026E0006FFF641C6D1CE4B2EDB212988DE881049A
:1026F00008F13000C2B204FB06B080B2089B069914
:10270000FFF75EFF641CE4B2AC42CFD309B0BDE872
:10271000F08F00000000C8422DE9FE4F9946DDE928
:102720000D6714468A460546DDF830800CE0CDF88A
:1027300000804B4651462846CDE90167FFF740FF30
:1027400005EB560085B2641C2278002AEFD1BDE863
:10275000FE8F10B50446000A00F01AF8E0B2BDE89A
:10276000104000F015B8000070B5084C0546002276
:1027700080212046FEF704FE284600F009F8204696
:10278000BDE8704001228021FEF7FABD001C024026
:1027900001B504480223012269460068FFF7ECF9FD
:1027A00008BD0000000000207FB5002415480094FB
:1027B0000194029412490394C0E900148460012535
:1027C0000461057680F820402907C162C56149107F
:1027D000C460816280F830504561FEF74AFA08B162
:1027E000FEF7F1F80C20CDE9000569460294054892
:1027F000FEF7ECF8002801D0FEF7E5F87FBD0000F9
:102800000020014090090020114808B5016841F4FA
:10281000800101600068002200F4800000901146F1
:102820003820FEF721FE3820FEF710FE0022114668
:102830003A20FEF719FE3A20FEF708FE0022114664
:102840004620FEF711FEBDE808404620FEF7FEBD1B
:10285000303802402DE9F04387B014216846FDF777
:10286000FBFC38480024016841F020010160016848
:1028700001F020010591016841F0800101600168CB
:1028800001F080010591016841F0040101600168D7
:1028900001F004010591016841F001010160016846
:1028A00001F001010591016841F002010160006839
:1028B000254F00F002000590002201213846FEF766
:1028C0005FFDDFF88880012280214046FEF758FD39
:1028D000DFF87C904FF48146002231464846FEF7EF
:1028E0004FFD00224FF400514046FEF749FD0125FF
:1028F0000095CDE90154694638460394FEF756FC2D
:102900004FF40250CDE900050320CDE9025069469D
:102910004046FEF74BFC0096CDE901546946484617
:102920000394FEF743FC402000900220CDE901040F
:10293000CDE9034069464846FEF738FC07B0BDE8DC
:10294000F08300003038024000000240001C0240CA
:1029500000040240104810B50E4901604FF4827126
:10296000416000218160C1604FF400720161C0E9E3
:1029700005120822C0E90721416281620A21C16271
:10298000FFF776F8002803D0BDE81040FEF71BB82B
:1029900010BD000000500140380A002010B586B07C
:1029A000002417480094019402940394049413495A
:1029B0000594C0E9001440F28331C0E9024104618A
:1029C0008461FFF7F1F908B1FDF7FDFF4FF4805086
:1029D000009069460A48FFF733FA08B1FDF7F3FFA4
:1029E0002020CDE9040404A90548FFF795F9002843
:1029F00001D0FDF7E8FF06B010BD00000004004064
:102A0000900A00200C4810B50A4901604FF4E131EA
:102A10004160002181600C22C160C0E90412816123
:102A2000C161FFF7BBFB002803D0BDE81040FDF7F4
:102A3000CABF10BD00100140D00A0020FEE7704759
:102A40007047000038B504461248134B0068B0FBCD
:102A5000F3F04FF47A73584300906068B0F5827FCA
:102A60000DD10B46009200228021204600F016F87E
:102A700070B1606D40F020006065032038BD0098A3
:102A800030B1401E009020688068C0430006F6D533
:102A9000002038BD2C00002000366E012DE9F041E9
:102AA0001D4617460E460446DDF8188008E0681CEF
:102AB00006D0FEF76BFCA0EB0800A8420BD255B184
:102AC0002068806836EA000030D00020B842EED19D
:102AD0000020BDE8F0812068416821F0E0014160FC
:102AE0006068B0F5827F0BD1A068B0F5004F02D0CE
:102AF000B0F5806F04D12068016821F040010160C9
:102B0000A06AB0F5005F09D12068016821F4005186
:102B100001602068016841F400510160012084F8DF
:102B20005100002084F850000320D2E70120CDE7B7
:102B30007047FEF731BC000070B592B03021684696
:102B4000FDF78AFB14210CA8FDF786FB1A48002527
:102B5000016841F080510160006800F080501190E0
:102B60001648016821F4404141F480410160006849
:102B7000022400F4404011900120009000040190D4
:102B80008001CDE906400F2608966C20CDE90904A6
:102B900004200B906846FEF7BDFDFEF797FCE002AF
:102BA000CDE90E50CDE90C64109002210CA8FEF77F
:102BB000C5FC12B070BD00004038024000700040FB
:102BC0000548016841F47001016003494FF000605D
:102BD000803908607047000088ED00E00148FFF789
:102BE0009BB90000900A0020F0B50268254C264DE4
:102BF000264E274F274B4FF0804CA04209D060450E
:102C000007D0A84205D0B04203D0B84201D09842C4
:102C100004D122F0700E4A6842EA0E02A0421BD094
:102C2000604519D0A84217D0B04215D0B84213D091
:102C3000984211D0184DA8420ED0184DA8420BD082
:102C4000174DA84208D0174DA84205D0164DA842EE
:102C500002D0164DA84203D122F44075CA682A4317
:102C60004D6922F080022A4302608A68C2620A68C3
:102C70008262A04201D0984201D109690163012119
:102C80004161F0BD00000140000400400008004028
:102C9000000C00400004014000400140004401409D
:102CA0000048014000180040001C00400020004087
:102CB00010B5846842EA032224F47F440A43224385
:102CC000826010BD826822F070020A4342F0070160
:102CD0008160704710B5036A046A24F0010404623D
:102CE000846924F0F00444EA021423F00A020A433F
:102CF0008461026210BD10B5036A23F01003036201
:102D00008369046A23F4704343EA023224F0A00387
:102D100043EA01118261016210BD10B5806B002190
:102D2000C185C184FFF7AFF910BD0168CA6822F4FC
:102D30009072CA6001684A6922F001024A6120214A
:102D400080F83A10704710B590F83A10222901D057
:102D5000022010BD8168B1F5805F11D001690029A2
:102D600001681FD0496801F07F03816A4A1C8262B2
:102D70000B70C18D491E0904090CC18518D02BE0C8
:102D80000269816A002A0268526805D0D2B20A80BC
:102D9000816A491C8162ECE7C2F308020A80816AF9
:102DA000891CF7E74A68816A4B1C83620A70E0E776
:102DB0000168CA6822F02002CA600168CA6822F469
:102DC0008072CA6001684A6922F001024A612021CA
:102DD00080F83A10FFF788FA002010BD2DE9F04185
:102DE000044600680169E26821F440511143016121
:102DF0002169A068E26908436169114308432168B9
:102E0000CA6849F20C639A430243CA602068416968
:102E1000A26921F4407111434161E06919276425D9
:102E20003226B0F5004F354A354920684FF000088A
:102E300006D0884201D0904236D1FEF729FC35E019
:102E4000884201D0904202D1FEF722FC01E0FEF759
:102E50000FFC61684A18A0FB070148EB0803FDF767
:102E6000C3F90146B0FBF5F00201B1FBF5F06FF0DC
:102E70001803584301EB800006EBC000B0FBF5F0EF
:102E800000F0F80002EB4002B1FBF5F0584301EB13
:102E9000800006EBC000B0FBF5F000F007002168F1
:102EA00010448860BDE8F081FEF7E2FB61688B0F9B
:102EB0008A00A0FB0701FDF797F90146B0FBF5F08A
:102EC0006FF01802504301EB800006EB0010B0FBDE
:102ED000F5F000F0F002B1FBF5F002EB0012B1FBEF
:102EE000F5F06FF01803584301EB800006EB00107B
:102EF000B0FBF5F000F00F00D1E700000014014036
:102F00000010014090F83910212901D002207047AB
:102F10008168B1F5805F016A0BD04A1C02620268C9
:102F200009785160C18C491E0904090CC1840ED076
:102F300017E009880268C1F308015160016900299E
:102F4000016A02D0491C0162ECE7891CFBE70168B9
:102F5000CA6822F08002CA600068C16841F040017E
:102F6000C1600020704700000148FFF78DB80000E5
:102F7000D00A0020FEE70907090E002804DB00F153
:102F8000E02080F80014704700F00F0000F1E0200E
:102F900080F8141D704702E008C8121F08C1002AFB
:102FA000FAD170477047002001E001C1121F002ACA
:102FB000FBD1704710B504460420FEF78BFE014894
:102FC000046010BD0400002070B5054600244FF4D5
:102FD0007A7603E0304600F005F8641CAC42F9D381
:102FE00070BD000070B54FF0E0240022656909490A
:102FF000A36909684843A1699942FCD002D2A3EBB6
:10300000010302E0A5EB010633441A440B46824259
:10301000F1D370BD040000202DED0C8B84B0FEF7C1
:10302000C3F9FFF789FDFFF715FCFFF7EDFBFFF78D
:1030300091FCFFF7B9FBFFF7E5FCFFF7AFFCB4200D
:10304000FFF7B8FFFFF7E8F94FF6FF75F02300210F
:103050001A4608460095FFF7C0F9F02277497848EC
:10306000FDF788FE7748FEF7D9FE4FF0000B9FED85
:1030700076BB9FED778B9FED78CB9FED79DB7A4C1C
:103080004FF010094FF4784A4FEA050884ED02BB6F
:1030900084ED048BC0235D46F02219460020CDF854
:1030A00000B0FFF741F9CDF80080CDE901954E461B
:1030B000474653466DA2CD210020FFF72DFB009718
:1030C000CDE9016553466BA2CD217820FFF724FBA3
:1030D00000252E46206801287DD1584800EB460087
:1030E000B0F85000FDF7DCF9B0EE481AF0EE681ABF
:1030F00053EC112BFDF762F99FED601B53EC112B84
:10310000FDF75CF941EC100B5E48B0EE4CAA00EB09
:10311000C507F0EE6CAA87ED000B53EC1A2B51ECAF
:10312000100BFDF74BF9B0EE4D9AF0EE6D9A53ECA3
:10313000192BFDF79CF8FDF7C0F981B2A8B25246F1
:10314000FFF740F935B397ED000B53EC1A2B51EC18
:10315000100BFDF733F953EC192BFDF788F8FDF749
:10316000ACF980B2019017ED080B53EC1A2B51EC1F
:10317000100BFDF723F953EC192BFDF778F8FDF749
:103180009CF981B2281FAAB280B2CDF800A0019BA1
:10319000FFF7CAF897ED000B94ED021B51EC100BF2
:1031A00053EC112BFDF7BAF902D394ED020B03E0B7
:1031B00097ED000B84ED020B51EC100BFDF7C6F9F7
:1031C00000EE100A53460322CD214620CDE90089A6
:1031D000FFF756FA00E01FE097ED000B94ED041B9B
:1031E00051EC100B53EC112BFDF780F902D994ED43
:1031F000040B03E097ED000B84ED040B51EC100B76
:10320000FDF7A4F900EE100A53460322CD21AA20AF
:10321000CDE90089FFF734FA206800B900262D1D9A
:10322000761CF02DFFF656AFF02300211A46084613
:10323000CDF80080FFF7D1F828E70000300000202B
:1032400090090020900A00209A9999999999B93F7C
:103250006666666666660A400000000000003E4042
:103260000000000000005440080000206D61782834
:1032700056293A006D696E2856293A000000000070
:103280000000303F100200200246012000E05043C1
:10329000491EC9B2FBD270470000000000000000C8
:1032A00000000000000000000000000808080808F6
:1032B000080800001818000000486C2412000000E4
:1032C00000000000000000000000002424247F1201
:1032D00012127F12121200000000081C2A2A0A0C87
:1032E0001828282A2A1C0808000000222515151570
:1032F0002A585454542200000000000C1212120AE2
:1033000076252911916E00000006060403000000D6
:103310000000000000000000004020101008080815
:1033200008080810102040000002040808101010BF
:1033300010101008080402000000000008086B1CB0
:103340001C6B0808000000000000000008080808C6
:103350007F080808080000000000000000000000CE
:10336000000000000606040300000000000000004A
:10337000FE0000000000000000000000000000004F
:1033800000000000060600000000804040202010E1
:1033900010080804040202000000001824424242FF
:1033A0004242424224180000000000080E080808AB
:1033B00008080808083E00000000003C4242422085
:1033C00020100804427E00000000003C4242201809
:1033D00020404042221C000000000020302824240D
:1033E00022227E20207800000000007E0202021AC5
:1033F00026404042221C0000000000382402021A2D
:1034000026424242241800000000007E22221010B2
:1034100008080808080800000000003C4242422456
:1034200018244242423C000000000018244242425C
:1034300064584040241C00000000000000001818E0
:103440000000000018180000000000000000000844
:1034500000000000000808040000004020100804DC
:1034600002040810204000000000000000007F005F
:1034700000007F000000000000000002040810208F
:1034800040201008040200000000003C4242464078
:1034900020101000181800000000001C225A55557A
:1034A00055552D42221C0000000000080818141475
:1034B000243C224242E700000000001F2222221E7C
:1034C00022424242221F00000000007C42420101D1
:1034D00001010142221C00000000001F2242424262
:1034E00042424242221F00000000003F4212121ED0
:1034F00012120242423F00000000003F4212121E20
:1035000012120202020700000000003C2222010108
:1035100001712122221C0000000000E742424242C9
:103520007E42424242E700000000003E08080808D0
:1035300008080808083E00000000007C1010101069
:10354000101010101010110F0000007722120A0E38
:103550000A12122222770000000000070202020273
:1035600002020202427F0000000000773636363643
:103570002A2A2A2A2A6B0000000000E346464A4A0B
:1035800052525262624700000000001C2241414139
:1035900041414141221C00000000003F42424242A2
:1035A0003E020202020700000000001C22414141CD
:1035B00041414D53321C60000000003F4242423EF8
:1035C0001212222242C700000000007C4242020484
:1035D00018204042423E00000000007F49080808D1
:1035E00008080808081C0000000000E742424242A8
:1035F00042424242423C0000000000E74242222494
:1036000024141418080800000000006B49494949B7
:103610005555362222220000000000E742242418DB
:103620001818242442E70000000000772222141416
:1036300008080808081C00000000007E2120101067
:1036400008040442423F00000078080808080808FF
:1036500008080808080878000000020204040808A6
:103660000810102020204040001E101010101010D4
:103670001010101010101E00003844000000000050
:10368000000000000000000000000000000000003A
:1036900000000000000000FF00060800000000001D
:1036A0000000000000000000000000000000003CDE
:1036B0004278444242FC0000000000030202021A69
:1036C00026424242261A0000000000000000003896
:1036D000440202024438000000000060404040788C
:1036E0004442424264D80000000000000000003C58
:1036F000427E0202423C0000000000F08808087E82
:1037000008080808083E0000000000000000007CD7
:1037100022221C023C42423C000000030202023A08
:103720004642424242E700000000000C0C00000E3E
:1037300008080808083E000000000030300000388B
:10374000202020202020221E0000000302020272FE
:10375000120A1612227700000000000E080808085E
:1037600008080808083E0000000000000000007F74
:103770009292929292B70000000000000000003B7D
:103780004642424242E70000000000000000003CC8
:1037900042424242423C0000000000000000001B88
:1037A00026424242221E020700000000000000786C
:1037B00044424242447840E00000000000000077AC
:1037C0004C040404041F0000000000000000007C02
:1037D00042023C40423E0000000000000008083E5B
:1037E000080808080830000000000000000000631E
:1037F0004242424262DC000000000000000000E79C
:10380000422424140808000000000000000000EB1F
:1038100049495555222200000000000000000076B2
:1038200024181818246E000000000000000000E7B3
:103830004224241418080807000000000000007E3D
:1038400022100808447E000000C020202020201004
:10385000202020202020C000101010101010101068
:10386000101010101010101000060808080808109A
:1038700008080808080806000C32C2000000000012
:103880000000000000000000000000000000000038
:103890000000000000000000000000000000000028
:1038A0000000000000000000000000000000000018
:1038B0000000000000000000000000000000000008
:1038C00000000000000000000000000000000000F8
:1038D0000000C001C001C001C001C001C001C001A1
:1038E0008000800080008000800080008000000058
:1038F0000000000000008001C003C0038001000040
:103900000000000000000000000000000000E01CBB
:10391000E01CF01E700E3807180308018400000038
:103920000000000000000000000000000000000097
:103930000000000000000000000000000000000087
:103940000000000000000000000000000000000077
:103950000000000020102010201020102010FE7FFA
:10396000FE7F100810081008100810081008100832
:10397000FE7FFE7F08040804080408040804000011
:103980000000000000000000000000000000000037
:1039900000010001C00760191031183118391839B9
:1039A00038017001E001C0038007000F001D0039DD
:1039B00000311C311C310C310C11180DE0070001D5
:1039C00000010001000000000000000000000000F5
:1039D000000000001C1036186308630C63046304C5
:1039E000630263026301361D9C378022806340635B
:1039F000406320632063306310221836081C0000E7
:103A000000000000000000000000000000000000B6
:103A100000000000F00098018C018C018C018C01E9
:103A20008C00CC007800183E1C083608320863046D
:103A30006304C304C303834306438E26781C00003B
:103A400000000000000000000000000000001C005A
:103A50003C003C003000300010000C00060000006C
:103A60000000000000000000000000000000000056
:103A70000000000000000000000000000000000046
:103A800000000000000000000000000000000040F6
:103A9000002000100008000C0004000600030003D2
:103AA000000380018001800180018001800180018C
:103AB000800100030003000300060006000C00085C
:103AC0000010002000400000000000000000020084
:103AD000040008001000300020006000C000C0009A
:103AE000C00080018001800180018001800180018F
:103AF0008001C000C000C000600060003000100005
:103B000008000400020000000000000000000000A7
:103B1000000000000000000000018003800300019D
:103B20001C713C79783DC0070001C007783D3C79A5
:103B30001C71000180038003800100000000000070
:103B40000000000000000000000000000000000075
:103B50000000000000000000000000010001000162
:103B60000001000100010001FC7F000100010001D3
:103B70000001000100010001000000000000000041
:103B80000000000000000000000000000000000035
:103B90000000000000000000000000000000000025
:103BA0000000000000000000000000000000000015
:103BB00000000000000000001C003C003C00300041
:103BC000300010000C0006000000000000000000A3
:103BD00000000000000000000000000000000000E5
:103BE0000000000000000000FE7F00000000000058
:103BF00000000000000000000000000000000000C5
:103C000000000000000000000000000000000000B4
:103C100000000000000000000000000000000000A4
:103C20000000000000000000000000000000000094
:103C300000000000000018003C003C0018000000DC
:103C40000000000000000000000000000000004034
:103C5000006000200030001000180008000C000474
:103C6000000600020003000180018000C000400047
:103C70006000200030001000180008000C00040054
:103C8000060002000000000000000000000000002C
:103C900000000000C007600C3018183018301820E1
:103CA0000C600C600C600C600C600C600C600C60B4
:103CB0000C601820183018303018600CC007000055
:103CC00000000000000000000000000000000000F4
:103CD0000000000000018001F801800180018001E6
:103CE00080018001800180018001800180018001CC
:103CF00080018001800180018001C003F81F000065
:103D000000000000000000000000000000000000B3
:103D100000000000E007101C0818043004300C30CC
:103D20000C30003000180008000400020001800080
:103D300040002020102008200430FC1FFC1F000041
:103D40000000000000000000000000000000000073
:103D500000000000E003180E0C0C0C180C180C18D6
:103D60000018000C0006C003000E00180010003000
:103D700000300C300C300C100C18180CE003000054
:103D80000000000000000000000000000000000033
:103D900000000000000C000E000E000F800E800ED0
:103DA000400E600E200E100E100E080E040E040EB3
:103DB000FE7F000E000E000E000E000E000EC07FF3
:103DC00000000000000000000000000000000000F3
:103DD00000000000F03FF03F10001000100008004D
:103DE0000800C807280C18180810003000300030F0
:103DF00000300C300C3004180418080CF0030000DC
:103E000000000000000000000000000000000000B2
:103E100000000000800FC010203010301800180083
:103E200008000C008C0F6C183C301C600C600C609F
:103E30000C600C601860182030306018C00700005B
:103E40000000000000000000000000000000000072
:103E500000000000F83FF83F1C100C0804080404A0
:103E60000004000200020001000100018000800047
:103E70008000C000C000C000C000C000C000000042
:103E80000000000000000000000000000000000032
:103E900000000000E007300C18180C300C300C301B
:103EA0001C3038187008E007B007180E0C1C0638D4
:103EB00006300630063006300C18180CE0030000FF
:103EC00000000000000000000000000000000000F2
:103ED00000000000E00318040C080C18061006305F
:103EE00006300630063006380C3C1836F03100300B
:103EF0000018001800180C0C0C060C03F001000050
:103F000000000000000000000000000000000000B1
:103F100000000000000000000000000000000000A1
:103F200000008001C003C003800100000000000009
:103F30000000000000008001C003C00380010000F9
:103F40000000000000000000000000000000000071
:103F50000000000000000000000000000000000061
:103F60000000C000C00000000000000000000000D1
:103F700000000000000000000000C000C000800041
:103F80008000400040000000000000000000000031
:103F9000000000200010000800040006000380015B
:103FA000C0006000300018000C00180030006000F5
:103FB000C00080010003000600040008001000207B
:103FC00000000000000000000000000000000000F1
:103FD00000000000000000000000000000000000E1
:103FE0000000FE7F00000000000000000000FE7FD7
:103FF00000000000000000000000000000000000C1
:1040000000000000000000000000000000000000B0
:10401000000004000800100020006000C0008001C3
:1040200000030006000C001800300018000C000609
:1040300000038001C00060002000100008000400A0
:104040000000000000000000000000000000000070
:104050000000C0073018083008600C601C601C604D
:104060001C600030001C0006000180008000800001
:104070008000000000008001C003C0038001000038
:104080000000000000000000000000000000000030
:1040900000000000C0076018103018200C2F8C4D55
:1040A000864CC64CC64C664C6644664466266626FC
:1040B0006615CC1C0C40082018303018C0070000D2
:1040C00000000000000000000000000000000000F0
:1040D00000000001C001C001C001400160032003D5
:1040E000200320033006100610061006F80F080CF7
:1040F000080C080C0C0C0418041806181F7C00008F
:1041000000000000000000000000000000000000AF
:1041100000000000FE07181C18381830183018303E
:1041200018301818180CF8071818183018201860CC
:10413000186018601860186018301818FE0F00001A
:10414000000000000000000000000000000000006F
:1041500000000000C0276038103018200C400C40D0
:104160000400060006000600060006000600060021
:1041700006000C400C400C2018303018C00700001E
:10418000000000000000000000000000000000002F
:1041900000000000FE03180E1818183018301830F0
:1041A000186018601860186018601860186018604F
:1041B00018601830183018101818180EFE03000078
:1041C00000000000000000000000000000000000EF
:1041D00000000000FE3F183018201860184018003A
:1041E00018081808180CF80F180C180818081800E8
:1041F000180018001840184018201830FE3F000022
:1042000000000000000000000000000000000000AE
:1042100000000000FE7F1870184018C018801800B9
:10422000181018101818F81F18181810181018005F
:104230001800180018001800180018007E00000070
:10424000000000000000000000000000000000006E
:1042500000000000C013701C101018100C200C205F
:1042600004000600060006000600060006FC0630F4
:1042700006300C300C30183018303008C007000001
:10428000000000000000000000000000000000002E
:10429000000000003F7E0C180C180C180C180C18AD
:1042A0000C180C180C180C18FC1F0C180C180C18F7
:1042B0000C180C180C180C180C180C183F7E000069
:1042C00000000000000000000000000000000000EE
:1042D00000000000F81F8001800180018001800142
:1042E00080018001800180018001800180018001C6
:1042F000800180018001800180018001F81F0000A1
:1043000000000000000000000000000000000000AD
:1043100000000000E07F0006000600060006000620
:10432000000600060006000600060006000600065D
:10433000000600060006000600060006000600064D
:104340000E060E038E01FC000000000000000000BD
:10435000000000007E7C18181808180418061802BF
:10436000180198019801D801B803380318071806F6
:10437000180E180C181C1818183018307EFC000085
:10438000000000000000000000000000000000002D
:10439000000000007E001800180018001800180027
:1043A000180018001800180018001800180018004D
:1043B000180018001840184018201830FE3F000060
:1043C00000000000000000000000000000000000ED
:1043D000000000001FF81C381C381C381C3C34340A
:1043E0003434343434367432643264326432643196
:1043F000C431C431C431C430C43084309FFC0000A7
:1044000000000000000000000000000000000000AC
:10441000000000001F7C1C103C103410341074107D
:104420006410E410C410C41184118413041304171D
:104430000416041E041C041C041C04181F1800008D
:10444000000000000000000000000000000000006C
:1044500000000000C003300C181808100C300C309D
:10446000066006600660066006600660066006601C
:1044700006600C200C3008101818300CC003000027
:10448000000000000000000000000000000000002C
:1044900000000000FE0F181818301860186018602F
:1044A0001860186018301818F80F18001800180055
:1044B0001800180018001800180018007E000000EE
:1044C00000000000000000000000000000000000EC
:1044D00000000000C003300C18180C100C300C2029
:1044E000066006600660066006600660066006609C
:1044F0000660E4612C331C321816300EC007004CE5
:10450000007C0038000000000000000000000000F7
:1045100000000000FE07181C18381830183018303A
:1045200018301818180CF8079803180318071806FD
:104530001806180E180C180C181C18187E78000095
:10454000000000000000000000000000000000006B
:1045500000000000E027303818300C200C200C0040
:104560000C0018007800E003800F001E0038007077
:10457000006004600460086018303818C80F00003C
:10458000000000000000000000000000000000002B
:1045900000000000FC3F8C21846182418241800147
:1045A0008001800180018001800180018001800103
:1045B000800180018001800180018001E00700000E
:1045C00000000000000000000000000000000000EB
:1045D000000000003F7C0C100C100C100C100C1094
:1045E0000C100C100C100C100C100C100C100C10EB
:1045F0000C100C100C100C1008083804E00300001C
:1046000000000000000000000000000000000000AA
:10461000000000003EF8182018201820301030103C
:1046200030103010600860086008E00CC004C0045E
:10463000C0048003800380038003000100010000A8
:10464000000000000000000000000000000000006A
:1046500000000000DFF38661862186218C210C2179
:104660008C238C138C138C134C1358125816580E21
:10467000380E380E380E300C1004100410040000F0
:10468000000000000000000000000000000000002A
:10469000000000007E3E1808380830043004700224
:1046A0006002E001C001C0018001800340034007B7
:1046B00020062006100C100C081808183E7C00007C
:1046C00000000000000000000000000000000000EA
:1046D000000000007E7C1C10181018083008300CF8
:1046E000700460046002C002C002C0018001800149
:1046F000800180018001800180018001E0070000CD
:1047000000000000000000000000000000000000A9
:1047100000000000F83F18180818040C040E0006EA
:104720000007000380038001C001C000E0006000BA
:1047300070003000382018201C100C18FE1F0000DC
:104740000000000000000000000000000000C03F6A
:104750004000400040004000400040004000400059
:104760004000400040004000400040004000400049
:104770004000400040004000400040004000400039
:104780004000C03F000000000000000000000000EA
:104790000000080018001800100030002000600021
:1047A00060004000C0008000800180010001000323
:1047B0000002000600060004000C000800180018A3
:1047C0000010003000200000000000000000FC038A
:1047D00000020002000200020002000200020002C9
:1047E00000020002000200020002000200020002B9
:1047F00000020002000200020002000200020002A9
:104800000002FC0300000000000000000000800720
:10481000C00620081010000000000000000000008A
:104820000000000000000000000000000000000088
:104830000000000000000000000000000000000078
:104840000000000000000000000000000000000068
:104850000000000000000000000000000000000058
:104860000000000000000000000000000000000048
:104870000000000000000000000000000000000038
:10488000000000000000FFFF0000000000007800B2
:10489000C000000100000000000000000000000057
:1048A0000000000000000000000000000000000008
:1048B00000000000000000000000000000000000F8
:1048C00000000000000000000000000000000000E8
:1048D00000000000000000000000000000000000D8
:1048E0000000F00318060C0C0C0C000C800F700C70
:1048F0001C0C0C0C060C060C064C0C4FF838000077
:1049000000000000000000000000000000000000A7
:10491000000010001E0018001800180018001800F1
:104920001800180FD81838303860186018601860F0
:10493000186018601860182038307818C807000010
:104940000000000000000000000000000000000067
:104950000000000000000000000000000000000057
:104960000000C007700C181818180C180C000C0068
:104970000C000C000C20182018103008C007000094
:104980000000000000000000000000000000000027
:1049900000000010001E0018001800180018001871
:1049A0000018E01B301C181818180C180C180C18DC
:1049B0000C180C180C180818181C307AE0090000A4
:1049C00000000000000000000000000000000000E7
:1049D00000000000000000000000000000000000D7
:1049E0000000C007300C181808100C300C30FC3FC9
:1049F0000C000C000C00182018107018C0070000E4
:104A000000000000000000000000000000000000A6
:104A100000000000003E80C380C0C0C0C000C000D5
:104A2000C000FC1FC000C000C000C000C000C0002B
:104A3000C000C000C000C000C000C000F80F0000EF
:104A40000000000000000000000000000000000066
:104A50000000000000000000000000000000000056
:104A60000000C077306C1018181818181818101893
:104A7000300CF00718001800F00FF03F08700C60C1
:104A80000C600C603838E00F0000000000000000EF
:104A9000000010001E001800180018001800180070
:104AA0001800980FD81838301830183018301830CF
:104AB0001830183018301830183018307EFC0000CC
:104AC00000000000000000000000000000000000E6
:104AD000000000008003800380030000000000004D
:104AE0000001F801800180018001800180018001C6
:104AF000800180018001800180018001F81F000099
:104B000000000000000000000000000000000000A5
:104B100000000000003800380038000000000000ED
:104B20000010801F00180018001800180018001846
:104B300000180018001800180018001800180018B5
:104B40000018180C1806F003000000000000000018
:104B5000000010001E0018001800180018001800AF
:104B60001800183E180C1806180318019801D801EF
:104B7000380318071806180C181C18187E7C00003B
:104B80000000000000000000000000000000000025
:104B900000000001F8018001800180018001800196
:104BA00080018001800180018001800180018001FD
:104BB000800180018001800180018001F81F0000D8
:104BC00000000000000000000000000000000000E5
:104BD00000000000000000000000000000000000D5
:104BE0000800EE1C9C338C318C318C318C318C3133
:104BF0008C318C318C318C318C318C31DE7B0000EE
:104C000000000000000000000000000000000000A4
:104C10000000000000000000000000000000000094
:104C200010001E0FD81838301830183018301830CF
:104C30001830183018301830183018307EFC00004A
:104C40000000000000000000000000000000000064
:104C50000000000000000000000000000000000054
:104C60000000C007701C103018300C600C600C6025
:104C70000C600C600C60183018303018C007000051
:104C80000000000000000000000000000000000024
:104C90000000000000000000000000000000000014
:104CA00010009E0F581838301820186018601860CF
:104CB0001860186018601830383078189807180095
:104CC0001800180018007E0000000000000000001E
:104CD00000000000000000000000000000000000D4
:104CE0000000C023303C183818300C300C300C3029
:104CF0000C300C300C3008301838303CE0330030C9
:104D000000300030003000FC000000000000000017
:104D10000000000000000000000000000000000093
:104D200060007E3C60666061E000E0006000600062
:104D3000600060006000600060006000FE0700002E
:104D40000000000000000000000000000000000063
:104D50000000000000000000000000000000000053
:104D60000000E02730381830182018007000E003E9
:104D7000800F001C043004300C301C18EC0F0000B5
:104D80000000000000000000000000000000000023
:104D90000000000000000000800080008000C000D3
:104DA000E000FC1FC000C000C000C000C000C00088
:104DB000C000C000C000C020C0208011000F000053
:104DC00000000000000000000000000000000000E3
:104DD00000000000000000000000000000000000D3
:104DE00010201E3C18301830183018301830183089
:104DF0001830183018301830183830F4E01300002C
:104E000000000000000000000000000000000000A2
:104E10000000000000000000000000000000000092
:104E200000007E3C1818180838083004300470025E
:104E300060026002E001C001C001C000800000000B
:104E40000000000000000000000000000000000062
:104E50000000000000000000000000000000000052
:104E60000000DFF78E630C238C238C239813981398
:104E700058165816700E700E700E20042004000094
:104E80000000000000000000000000000000000022
:104E90000000000000000000000000000000000012
:104EA0000000FC3E70087004E004C002C0018003F2
:104EB000800340076006200C100C18183E7E00008E
:104EC00000000000000000000000000000000000E2
:104ED00000000000000000000000000000000000D2
:104EE00000007E7C18181808300830083004600470
:104EF0006004C002C002C002800180018001800005
:104F0000800080004C003C00000000000000000019
:104F10000000000000000000000000000000000091
:104F20000000FC1F0C0C040E04060003800380012B
:104F3000C000E0007020302038301C18FC1F00003A
:104F40000000000000000000000000000000003031
:104F5000000800040004000400040004000400042D
:104F600000040004000400028001000200040004A8
:104F70000004000400040004000400040004000411
:104F800000040008003000000001000100010001E1
:104F90000001000100010001000100010001000109
:104FA00000010001000100010001000100010001F9
:104FB00000010001000100010001000100010001E9
:104FC00000010001000100010000000000000C00D1
:104FD00010002000200020002000200020002000E1
:104FE0002000200020004000800140002000200020
:104FF00020002000200020002000200020002000B1
:10500000200010000C00000000003800C4008640A2
:1050100002610022001C00000000000000000000EF
:105020000000000000000000000000000000000080
:105030000000000000000000000000000000000070
:105040000000000000000000D6D08000800080003A
:105050008000FC1F84108410841084108410FC1FB6
:1050600084108000800080008000BEB0F80F080827
:10507000F80F0808F80F8000FF7F0000F80F0808FD
:105080000808F80F80008410A2204000D4B000006F
:10509000FE3F0220F22702200220FA2F22212221A5
:1050A0002221122912290A2E0220FE3F0220B5E7F2
:1050B000800080008000FC1F841084108410FC1F7E
:1050C000841084108410FC1F845080408040007F36
:1050D000D7D30000FE1F00080004000280018000FA
:1050E000FF7F800080008000800080008000A000A2
:1050F0004000D6D0000000000000001800000800AA
:10510000000800000800080818F8FF1F1808181801
:105110000818180818180818180818180818F8FF98
:105120001F08080800080000080000080000080028
:10513000001800001800001800000000BEB00000B9
:1051400000000000400006C0FF07400006C0FF0747
:10515000400006C0FF07400802003000FEFF3F008D
:105160000000C0FF07C00002C00002C00002C0FF74
:105170000380100080110160100E3010180C1E30DA
:10518000001C00000000D4B0000000000000080077
:1051900030F8FF1F08001008C010083F100800106A
:1051A000080010080013C8FF100822100822100879
:1051B000221008221008211208211488601648C005
:1051C00013280010080010F8FF1F0800100000004E
:1051D000B5E700000000000000180000080000080B
:1051E00000000800F0FF0F10080410080410080465
:1051F000100804F0FF071008041008041008041039
:105200000804F0FF0710080000081000081000084C
:105210002000183000F01F000000D7D3000000006D
:105220000000000004F0FF0F00000600000100C0B5
:1052300000002800001800001800001830FEFF7F52
:1052400000180000180000180000180000180000E6
:105250001800001800001800001800001F00000CC3
:1052600000000000D6D00000000000000000008018
:10527000000000800100008001000080010000802B
:105280000100008001001080010CF0FFFF0F308052
:10529000010430800104308001043080010430803A
:1052A0000104308001043080010430800104F0FFEB
:1052B000FF0730800104308001040080010000807D
:1052C00001000080010000800100008001000080DA
:1052D00001000080010000800100008001000080CA
:1052E000000000000000BEB0000000000000000050
:1052F000000000000001800100FFFF0100038001A9
:105300000003800100FFFF01000380010003800112
:1053100000FFFF0100818100000003000000031C6A
:10532000FCFFFF3F000040000003C00100FFFF0141
:105330000003C0000003C0000003C00000FFFF0026
:105340000001410000040100000E7100000781010E
:10535000800101076000010E1898011C04E001188B
:1053600000C0000000000000D4B0000000000000F9
:10537000000000000008F0FFFF1F3000000C3000AC
:10538000000C3000100C30FE3F0C3004000C3000DC
:10539000000C3000000C3000000C3000C00CF0FF9E
:1053A000FF0D3030060E3030060C3010060C301079
:1053B000060C3010060C3018860C3018860C30089D
:1053C000060D300C860D3006EE0F3002FC0D30015C
:1053D000000CF000000C3000000CF0FFFF0F30005C
:1053E000000C1000000400000000B5E70000000001
:1053F0000000000000C0000000C0010000C000006C
:1054000000C0000000C0000000C00000E0FFFF037B
:1054100060C0000360C0000360C0000360C0000300
:1054200060C0000360C00003E0FFFF0360C0000332
:1054300060C0000360C0000360C0000360C00003E0
:10544000E0FFFF0360C0000160C0000000C0000872
:1054500000C0001000C0001000C0001800C00138DB
:105460000080FF1F0000000000000000D7D30000F4
:105470000000000000000000000000000003C0FF6A
:10548000FF07000080070000C0000000600000006F
:10549000180000000C000080030000800300008062
:1054A0000100008001080080011CFCFFFF3F00801C
:1054B00001000080010000800100008001000080E8
:1054C00001000080010000800100008001000080D8
:1054D000010000800100008001000080010000FC4C
:1054E000010000E000000040000000000000000695
:1054F0001016000610160000000000000000010257
:10550000030406070809000000000102030400006C
:10551000305500080000002030000000962F0008E1
:105520006055000830000020A00F0000A62F0008E2
:10553000380A002000000000010000000000000008
:10554000000000000000000000000000000000005B
:105550000100000010000000000000000024F40022
:04000005080001AD41
:00000001FF
