:020000040800F2
:10000000C00700205D020008071B0008AD1A0008A9
:10001000051B0008F10C0008611E0008000000002C
:100020000000000000000000000000000B1B0008A2
:10003000F30C000800000000091B00080D1B00085D
:1000400077020008770200087702000877020008AC
:10005000770200087702000877020008770200089C
:10006000770200087702000877020008770200088C
:10007000770200087702000877020008770200087C
:10008000770200087702000877020008770200086C
:10009000770200087702000877020008770200085C
:1000A000770200087702000877020008770200084C
:1000B000770200087702000877020008770200083C
:1000C000770200087702000877020008770200082C
:1000D00077020008551E0008770200087702000822
:1000E000770200087702000877020008770200080C
:1000F00077020008770200087702000877020008FC
:1001000077020008770200087702000877020008EB
:1001100077020008770200087702000877020008DB
:1001200077020008770200087702000877020008CB
:1001300077020008770200087702000877020008BB
:1001400077020008770200087702000877020008AB
:10015000770200087702000877020008770200089B
:10016000770200087702000877020008770200088B
:1001700077020008770200087702000800000000FC
:10018000770200087702000877020008770200086B
:10019000770200087702000877020008770200085B
:1001A00077020008770200087702000800F002F8E2
:1001B00000F044F80AA090E8000C82448344AAF1BD
:1001C0000107DA4501D100F039F8AFF2090EBAE8BB
:1001D0000F0013F0010F18BFFB1A43F0010318477B
:1001E0001C1D00003C1D0000103A24BF78C878C1D7
:1001F000FAD8520724BF30C830C144BF04680C602D
:10020000704700000023002400250026103A28BF74
:1002100078C1FBD8520728BF30C148BF0B60704778
:100220001FB501F053FE9DE8030000F033FB00F022
:1002300011F91FBD10B500F076F910BD00F0D9F925
:100240001146FFF7EDFF01F02BFE00F0F1FA03B4C9
:10025000FFF7F0FF03BC00F0AFFC00000948804747
:1002600009480047FEE7FEE7FEE7FEE7FEE7FEE798
:10027000FEE7FEE7FEE7FEE704480549054A064BB0
:1002800070470000A51B0008AD010008C001002058
:10029000C0070020C0030020C003002053EA020C66
:1002A00000F069802DE9F04B4FF00006002B1FBFD6
:1002B000B3FA83F503FA05F424FA05F65E4012BF9B
:1002C0001643B2FA82F502FA05F4C5F120051EBF05
:1002D00022FA05FC44EA0C04203556EA044C4FEAA5
:1002E000144418BF641C4FF000084FF000099042FE
:1002F00071EB030C39D3002919BFB1FA81F701FA68
:1003000007F6B0FA80F700FA07F6C7F120071EBF1C
:1003100020FA07FC46EA0C062037B6FBF4FCA7EBF4
:100320000507103F07F01F0BCBF120060CFA0BFB63
:100330002CFA06F644BFB3460026202FA4BF5E4623
:100340004FF0000B5BEA060C08BF4FF0010B19EBF6
:100350000B09ABFB027C48EB0608C01B06FB02CC7A
:100360000BFB03CC71EB0C01C1E70B460246414687
:100370004846BDE8F08B13B54FF000004FF0000188
:10038000AFF30080BDE81C40704700000FB4044983
:1003900010B503AA029800F02FF810BC5DF814FB0A
:1003A000B80000204FF0000200B513469446964670
:1003B000203922BFA0E80C50A0E80C50B1F1200178
:1003C000BFF4F7AF090728BFA0E80C5048BF0CC026
:1003D0005DF804EB890028BF40F8042B08BF704784
:1003E00048BF20F8022B11F0804F18BF00F8012BF6
:1003F0007047704770477047074B70B50D467B4498
:1004000000F011F80446284600F020F810B14FF033
:10041000FF3070BD204670BD831A000001694A1C80
:1004200002610878704700B58FB0CDE90131002135
:10043000059105497944CDE903101146684600F05D
:1004400024F90FB000BD0000E5FFFFFF007B00F0C6
:100450008000704710B542485421FFF7A3FF414880
:100460005421FFF79FFF40485421FFF79BFF3F496E
:100470003B483C4A3F4B08603D490A603A49196095
:10048000531C0365481C1065012008653B48344A2D
:1004900039A1784400F030F920B9384878440A3856
:1004A00000F0CFF937482F4A35A1784400F024F9FD
:1004B00020B9344878440A3800F0C3F932482A4A4F
:1004C0002FA1784400F018F920B92F4878440A3851
:1004D00000F0B7F940232248DC000021224600F05A
:1004E000E8F820B125487844543800F0AAF91D48AE
:1004F00022464023002100F0DCF820B12148784456
:10050000543800F09EF9184822461023002100F0CC
:10051000D0F8002806D01C487844BDE81040563872
:1005200000F08FB910BD104870B5006D20F00104C7
:100530000B4800F057F90B4800F054F90A4800F056
:1005400051F909E0206D20F00105204600F04AF93C
:10055000204600F073F82C46002CF3D170BD00004B
:1005600064000020B80000200C01002010000020D2
:10057000140000201800002072000000581A00002B
:1005800077000000441A0000301A00000EB5CDE9D3
:10059000000100F0F1FA029069460120ABBE0EBDE9
:1005A00008B5694600900220ABBE08BD1FB58DE8B6
:1005B000070069460520ABBE04B010BD1FB58DE82D
:1005C0000F0069460620ABBEF6E708B56946009005
:1005D0000920ABBE08BD1CB5CDE9000169460A2063
:1005E000ABBE1CBD704708B5694600900C20ABBE81
:1005F00008BD754600F02CF9AE4605006946534625
:1006000020F00700854618B020B5FFF735FEBDE89D
:1006100020404FF000064FF000074FF000084FF069
:10062000000B21F00701AC46ACE8C009ACE8C009FA
:10063000ACE8C009ACE8C0098D46704770B5044607
:10064000051F00F00BF90068002C14BF446870BD52
:10065000002C18BFAC423CBF20466468F8D3016848
:100660000A18AA4218BF456003D12A6805461144FA
:10067000016028684119A1421CBF6C6070BD6168AF
:10068000696021680844286070BD2DE9F041064684
:100690000024D6E90170F5688046304603E0414603
:1006A000B847641C3046A8470028F8D12046BDE86A
:1006B000F08170B5C468A50713D0650211D4B2F5F6
:1006C000807F09D0B2F5007F06D0B2F5806F08D1E7
:1006D000012300F1240106E05D1E6FF07F46B54264
:1006E00001D3012070BD0161C361416024F47061D8
:1006F0001143C160002070BD2DE9F0410C46074652
:100700001646104600F06EF82078611C61280AD069
:10071000722802D077283CD102E00125002405E0B0
:100720000225042402E0082448F2020511F8010B16
:100730002B2806D0622809D011F8010C74280AD0A1
:100740000BE045F0030544F00204EFE745F0040533
:1007500044F00104EAE744F0100438462146FFF76C
:1007600015FF411C15D00021316171604FF40071FB
:10077000F560F1617061200704D530460222002146
:1007800000F0E6F8306D40F0010030653046BDE81D
:10079000F0810020FBE72DE9F0410D460646104CA4
:1007A000206DC10704D0410804D020F00104F7E710
:1007B00022460EE0542000F09CF807000ED0206D79
:1007C00047F001010843542120653846FFF7EAFD50
:1007D0003A4629463046BDE8F0418DE70020D6E78D
:1007E000640000202DE9F04704464FF000094FF067
:1007F000FF37C568D4E90486A80707D0204600F073
:1008000057F93046FFF7CCFE002802DA3846BDE83B
:10081000F087280502D54046FFF710FF4C212046FF
:10082000FFF7C0FD206D20F0010020654846EEE78F
:1008300010B50446AFF300802046BDE81040FFF736
:1008400006BD10B500F07EF9BDE8104000F074B9A7
:100850000048704760010020704700000048704762
:1008600068010020704770477047704738B50446EC
:100870000A4600206946AFF30080002808BF38BD53
:1008800002460099204600F0A4F9012038BD01205D
:1008900000F0F3B9F8B5AFF30080054600200C4630
:1008A000102000BF0646A819A0420DD9324669465D
:1008B0000020AFF30080070008BF00F0DEF90098C9
:1008C000A04218BF0546C419FFF7C8FF05600746D8
:1008D000F01D20F007004619284600F073F9B442D5
:1008E00008BFF8BDA21B31463868BDE8F84000F0EB
:1008F00070B970B50646FFF7B1FF056806F10B0049
:1009000020F00704B4429CBF002070BD2B466A68EB
:10091000BAB11068A04210D304F1080188423CBF6C
:100920005068586007D35168101941601168091B5D
:10093000016058601460101D70BD13465268002A93
:10094000E7D121462846FFF791FF0028DED170BD90
:100950002DE9F041044616460D464769007B8007A5
:100960002ED03846FFF731FE50BB3EB3012E02D0E9
:10097000022E25D104E0204600F045F905441DE093
:100980003846FFF730FEE168002841F01001E160D1
:1009900005DA204600F058F80120BDE8F081C903CF
:1009A0000BD56268E16A914200D81146A2691144F0
:1009B0002269891A814200DD08460544002D01DACA
:1009C0000220EAE7E16A6068E268814206D29103A8
:1009D000E06203D522F4003141F01002A66900273D
:1009E000AE4213DCE16A814201D90B4600E00346C6
:1009F00003EB060C2369ACEB030CAC4506DD81422E
:100A000001D98C4600E084469C4505D1A76027604B
:100A100042F02000A5620DE0AD1BE669AE1B8142ED
:100A2000A66000D90846C01A281A206058196060CC
:100A300022F0200003490840E060002084F848705C
:100A4000ABE70000BFCFD7FFC16821F4001141F030
:100A50008001C16000218160016070472DE9F0478D
:100A6000814614460E464FF0FF383248D568576924
:100A7000054209D03846A169FFF7ADFD002811DB1A
:100A80002C48C0430540E5602B463246494638466F
:100A9000FFF78CFDA16920F00042B21A1144002832
:100AA000A16103D02046FFF7CFFF4046BDE8F087A5
:100AB00070B504460569C06A6168884200D8084676
:100AC000E16821F42011E160C90312D5A84208D0E1
:100AD0002246411B2846FFF7C1FF10B14FF0FF30FF
:100AE00070BD0020E562C4E90150E06820F4803068
:100AF000E060002070BD10B50446C06820F0200002
:100B0000E060A16AA06988420DD02046FFF7D0FFBF
:100B1000E06820F4405040F01000E060A06AA0615E
:100B20002069E062606044F24001E0688843E06070
:100B300010BD000010000200002801D000F03CB8F9
:100B40007047000010B5014602A000F07DF80120BA
:100B500010BD000053494752545245443A20526553
:100B60006469726563743A2063616E2774206F70E4
:100B7000656E3A200000000010B5431C02E010F83A
:100B8000011B71B18107FAD14FF0013202C88C1AF2
:100B90008C4314EAC211F9D0C01A0A0603D0C01E51
:100BA00010BDC01A10BD0A0401D0801E10BD09027C
:100BB000FCD0401E10BD000001491820ABBEFEE76E
:100BC0002600020000210160C0E9011070471020DA
:100BD0007047034640688C46002818BF88423CBFD7
:100BE00003464068F8D318681844884207D00CF1CF
:100BF000030020F00700001D411A521A0146081D8B
:100C00000A60FFF71BBD10B50146C268900703D00C
:100C1000900607D5886A0AE000F03EF801210160DD
:100C2000881E10BD8B69486818440B69C01A91F87A
:100C300048301BB191F84910401A10BD1103FCD582
:100C40000028FADD401E10BD70B505460C460A208E
:100C500000E06D1C00F018F835B128780028F8D1B4
:100C600002E0641C00F010F814B120780028F8D1DC
:100C7000BDE870400A2000F007B810B500F010F889
:100C8000BDE81040FFF758BF08B569468DF8000071
:100C90000320ABBE08BD0000004870476001002083
:100CA00010B5012805D0002103A0FFF7CDFF0120DA
:100CB00010BD09A1F8E7000053494752544D454D76
:100CC0003A204F7574206F662068656170206D65ED
:100CD0006D6F7279000000003A2048656170206DE8
:100CE000656D6F727920636F7272757074656400E0
:100CF000FEE7704772B6FEE72DE9F0410446876DC6
:100D000000F082F9064694F835000025022806D046
:100D10008020606584F834500120BDE8F0812068AF
:100D2000016821F0160101602068416921F080010D
:100D30004161206C08B9A06C20B12068016821F0E5
:100D4000080101602068016821F0010101600CE0E8
:100D500000F05AF9801B052807D920206065032080
:100D600084F8350084F83450D7E720680068C0075D
:100D7000EED194F85C103F208840B860012084F8E0
:100D8000350084F834500020C7E790F83510022968
:100D900003D08021416501207047052180F835107E
:100DA0000068016821F00101016000207047000027
:100DB00070B5044600F028F90546601C02D00448CE
:100DC0000078044400F020F9401BA042FAD370BD23
:100DD000000000202DE9F84FDFF8F8A100220124DF
:100DE00003254FF00F090AF1040BAAF1040E00BF0E
:100DF0000B6804FA02F63340B34270D10F7907F062
:100E00000307012F01D0022F16D187684FEA42084D
:100E100005FA08FC27EA0C07D1F80CC00CFA08FC0C
:100E20004CEA070CC0F808C04768B7430E79C6F310
:100E3000001696403E4346600E79F643B6070AD048
:100E4000C7684FEA420C05FA0CF6B7438E6806FAFB
:100E50000CF63E43C6600E7906F00306022E10D152
:100E6000D60800EB8608D8F8206057074FEAD76C01
:100E700009FA0CF7BE430F6907FA0CF73743C8F8B5
:100E8000207006684FEA420C05FA0CF7BE430F7952
:100E900007F0030707FA0CF7374307604E6816F4AC
:100EA000403F1CD04C4E376847F480473760366867
:100EB00022F0030706F480460096484E07EB060C26
:100EC000DCF8086897073F0F09FA07F826EA0806D2
:100ED000DFF80C81404503D14FF0000841E072E09B
:100EE000DFF80081404502D14FF0010839E0DFF81A
:100EF000F880404502D14FF0020832E0DFF8EC8084
:100F0000404502D14FF003082BE0DFF8E480404574
:100F100002D14FF0040824E0DFF8D880404502D128
:100F20004FF005081DE0DFF8D080404502D14FF0BA
:100F3000060816E0DFF8C480404502D14FF00708EC
:100F40000FE0DFF8BC80404502D14FF0080808E010
:100F5000DFF8B080404502D14FF0090801E04FF0C2
:100F60000A0808FA07F848EA0608CCF80888DAF808
:100F700000605746D1F804C09E435FEACC2C00D5F0
:100F80001E433E60DBF800605F46D1F804C09E431C
:100F90005FEA8C2C00D51E433E60DEF80060774689
:100FA000D1F804C09E435FEA8C3C00D51E433E60EE
:100FB000084F083F3E68D1F804C09E435FEACC3C2E
:100FC00000D51E433E60521C102AFFF411AFBDE84D
:100FD000F88F0000083C01404438024000300140D6
:100FE000000002400004024000080240000C0240E1
:100FF000001002400014024000180240001C024091
:101000000020024000240240014880687047000030
:101010000000002002488168027811448160704716
:10102000000000200B4810B5016841F40071016018
:10103000016841F480610160016841F480710160E0
:10104000032000F06FF80F2000F006F800F024F8FD
:10105000002010BD003C024070B50D4D04464FF419
:101060007A712878B1FBF0F00A490968B1FBF0F019
:1010700000F00CFB48B9102C07D200222146501E6C
:1010800000F030F800206C6070BD012070BD0000E1
:10109000000000200C0000200A4808B5016841F457
:1010A00080410160006800F4804000900548001F06
:1010B000016841F080510160006800F080500090AC
:1010C00008BD000044380240002809DB00F01F0280
:1010D000012191404009800000F1E020C0F800119A
:1010E00070470000F0B40E4B1B680C46C3F302239C
:1010F000C3F10705042D00D90425191D072901D2C4
:10110000002300E0DB1E012606FA05F1491E2140FE
:1011100099409E40761E16403143F0BC00F0A1BEBF
:101120000CED00E0064900F0070208684FF6FF03E7
:10113000184040EA0220034A10430860704700004C
:101140000CED00E00000FA052DE9F0470E46050021
:1011500065D0DFF81481D8F80000F7B200F00F0076
:10116000B04207D288F80070D8F8000000F00F00F5
:10117000B04254D128683D4C810712D5400703D5B1
:10118000206840F4E05020602878000703D52068EC
:1011900040F4604020602068A96820F0F000084317
:1011A00020602878C0072DD03049686808390128A8
:1011B00012D0022813D0032811D00968890700290A
:1011C0002DDA216821F0030101432160FFF71CFFA4
:1011D000814641F2883A0EE009688903EFE7096821
:1011E0008901ECE7FFF710FFA0EB0901514502D997
:1011F0000320BDE8F0872068696800F00C00B0EBC0
:10120000810FEFD1D8F80010404601F00F01B14234
:1012100007D90770006800F00F00B04201D001202C
:10122000E7E72878400705D52068E96820F4E05012
:10123000084320602878000706D52068296920F433
:10124000604040EAC100206000F038F82168084A98
:10125000C1F30311515CC8400649086006480068A4
:10126000FFF7FAFE0020C4E7003C024008380240C5
:10127000D61E00080C000020040000200448054988
:1012800000680968044AC1F38221515CC840704774
:101290000C00002008380240E61E000804480549FA
:1012A00000680968044AC1F34231515CC840704784
:1012B0000C00002008380240E61E0008154810B552
:1012C000006810F00C02144813D01449042A0FD0FF
:1012D000082A0ED10F4C241F2268236802F03F0217
:1012E0005B0207D52068C0F38810A0FB010106E06F
:1012F000084610BD2168C1F38811A1FB000100233D
:10130000FEF7CCFF2168C1F30141491C4900B0FB45
:10131000F1F010BD083802400024F40040787D014F
:101320002DE9F84F04006ED02078DFF84C93C00709
:10133000A9F104054AD009F104000168C1F3810153
:10134000012908D00068C0F3810002280AD1D9F829
:101350000000400206D52868800337D56068002861
:10136000E1D033E06068B0F5803F10D0B0F5A02F39
:10137000286810D020F480302860286820F480206D
:1013800028606068A8B1FFF73FFE06460DE02868B8
:1013900040F48030F4E740F480202860F7E700BF95
:1013A000FFF732FE801B642873D828688003F7D5C6
:1013B0000CE0FFF729FE064605E000BFFFF724FE1C
:1013C000801B6428F0D828688003F7D42078DFF8E1
:1013D000AC8280074FF0000A3ED5A748001D016887
:1013E00011F00C0F08D00068C0F3810002280BD167
:1013F000D9F80000400207D42868800716D5E068B5
:10140000012800D112E033E1E068B8B10120C8F84A
:101410000000FFF7F9FD064605E000BFFFF7F4FD09
:10142000801B0228C0D828688007F7D52868216962
:1014300020F0F80040EAC10028600DE0C8F800A0E4
:10144000FFF7E2FD064604E0FFF7DEFD801B022801
:101450001FD828688007F7D42078000722D5864F48
:1014600087486169703771B101210160FFF7CCFDD8
:10147000064604E0FFF7C8FD801B022809D838683B
:101480008007F7D50EE0C0F800A0FFF7BDFD0646C7
:1014900005E082E0FFF7B8FD801B02287DD83868A0
:1014A0008007F7D42078400768D5DFF8CCB1002753
:1014B0000BF13C0BDBF80000C0000BD4DBF8001094
:1014C00041F08051CBF80010DBF80000012700F05C
:1014D000805000906B4E3068C00510D4306840F4E6
:1014E00080703060FFF790FD009005E0FFF78CFD05
:1014F0000099401A022850D83068C005F6D55E4ED3
:10150000A0686C3601280FD00528306810D020F074
:1015100001003060306820F004003060A068B8B18D
:10152000FFF772FD00900FE0306840F00100F4E733
:1015300040F004003060F7E7FFF766FD0099411ABC
:1015400041F28830814266D830688007F4D50EE0D9
:10155000FFF75AFD009007E0FFF756FD0099411A8A
:1015600041F28830814256D830688007F4D42FB1D8
:10157000DBF8001021F08051CBF80010A069C8B34F
:101580003D49091D0968C1F3810102294AD0022899
:10159000504607D0C8F8600000E03CE0FFF734FD9B
:1015A00004463BE04746C8F86000FFF72DFD0646BD
:1015B00005E000BFFFF728FD801B02282BD8286814
:1015C0008001F7D4D4E907010843A16A2E4A4908EB
:1015D00002EB0141626A41EA8211084394F82C103F
:1015E00040EA0161C9F8001001203866FFF70CFDE0
:1015F000044606E03EE000BFFFF706FD001B0228A0
:1016000009D828688001F7D534E000BFFFF7FCFC5B
:10161000001B022802D90320BDE8F88F286880014A
:10162000F4D427E00128F7D0D9F80000E26900F4EB
:10163000800191421CD1226A00F03F01914217D1F2
:1016400047F6C071626A0140B1EB821F10D1A26AF5
:101650004FF0FF3300F4403103EB5202B1EB024F85
:1016600006D194F82C1000F07060B0EB016F01D03F
:101670000120D1E70020CFE70438024000004742B4
:10168000800E4742007000400000FFFF10B5401E72
:10169000B0F1807F01D3012010BD4FF0E0246061E4
:1016A0000F21601700F0DDFB0020A0610720206102
:1016B000002010BD70477047F8B5016804460868FF
:1016C000CA684B6910F00F0F4FF0000559D003F0B6
:1016D000010602F49077374365D0C10705D0D105E4
:1016E00003D5616C41F001016164410705D5D9075B
:1016F00003D0616C41F002016164810705D5D9070F
:1017000003D0616C41F004016164010707D502F068
:101710002001314303D0616C41F008016164616CC8
:1017200000293AD0800604D5900602D5204600F064
:1017300070FA20684069616CC0F38010090700D41A
:1017400060B3204600F03EFA20684069400621D58B
:101750002068143050E8001F21F0400140E80012DA
:10176000002AF5D1E06BA8B16E490165E06BFFF787
:101770000CFB002811D0E06B016D01B0BDE8F0401A
:10178000084783060FD593060DD52046BDE8F840DF
:1017900000F03FBA2046FFF78EFFF8BD2046FFF766
:1017A0008AFF6564F8BD266B2023012E7DD1C60615
:1017B0007BD5D60679D508684868009048694FF00F
:1017C0000206400641D5E16B086840680004000C41
:1017D000E8D0A28D8242E5D9E085C869B0F5807F66
:1017E0002DD020680C3050E8001F21F4807140E8B3
:1017F0000012002AF5D12068143050E8001F21F0B3
:10180000010140E80012002AF5D12068143050E8A8
:10181000001F21F0400140E80012002AF5D184F8B1
:101820004230256320680C3050E8001F21F0100181
:1018300040E80012002AF5D1E06BFFF75DFA66631D
:10184000A08DE18D401A81B22AE0A08DE18D401A71
:1018500081B2E08D0028A5D00029A3D022680C32E7
:1018600052E8000F20F4907042E80007002FF5D1F5
:101870002068143050E8002F22F0010240E80027D1
:10188000002FF5D184F84230256320680C3050E8F1
:10189000002F22F0100240E80023002BF5D16663F0
:1018A0002046FFF707FFF8BDFFE705062BD5150615
:1018B00029D594F841002128F5D1A068B0F5805FC2
:1018C00001D12069B0B1206A411C216221680078F1
:1018D0004860E08C401E0004000CE084E3D12068E6
:1018E000C16821F08001C1602068C16841F04001F9
:1018F000C160D8E7206A0088C0F308004860206A09
:10190000801C2062E5E74006CDD55006CBD5CA68DD
:10191000204622F04002CA6084F8413000F0C5F849
:10192000C1E70000B51B000870B5040004D094F8AE
:101930004100002510B106E0012070BD84F8405040
:10194000204600F023F8242084F841002068C16874
:1019500021F40051C160204600F0BCF92068016903
:1019600021F4904101612068416921F02A0141611F
:101970002068C16841F40051C1606564202084F88A
:10198000410084F842006563002070BD10B586B048
:10199000044614216846FEF705FD18492068884270
:1019A00029D117480021026842F010020260006845
:1019B00000F01000059012481438026842F001024D
:1019C0000260006800F0010005904FF4C0600090D4
:1019D0000220CDE90101032003900720049069460D
:1019E0000848FFF7F7F9002211462520FFF77AFB98
:1019F0002520FFF769FB06B010BD00000010014074
:101A0000443802400000024070472DE9F843044684
:101A100090F84100984616460D46202802D0022034
:101A2000BDE8F88385B17EB100206064212084F890
:101A30004100FFF7E9FAA6848146E684A0682027E2
:101A4000B0F5805F02D003E00120E9E7206910B122
:101A50002E4600250EE000260CE08021204600F0F6
:101A6000BFF9A8B9C6B116F8010B21684860E08C2F
:101A7000401EE084E08C4B464FF00002CDF8008021
:101A80000028EAD14FF04001204600F0A9F940B10A
:101A900084F841700320C3E735F8020BC0F3080057
:101AA000E3E784F841700020BAE77047FEE70000E2
:101AB000054808B5016841F001010160006800F0C7
:101AC0000100009008BD0000303802400C4810B5FD
:101AD0000A4901604FF4E1314160002181600C222C
:101AE000C160C0E904128161C161FFF71DFF0028D8
:101AF00003D0BDE81040FFF7FDB810BD0010014055
:101B00001C000020FEE7FEE770477047FFF782BA2F
:101B100030B593B030216846FEF744FC14210CA880
:101B2000FEF740FC1D480024016841F0805101602F
:101B3000006800F0805011901948016821F440417C
:101B400041F4804101600068022500F4404011909A
:101B50000120039010200490009506950820CDE9FF
:101B600007403220CDE9090504200B906846FFF7B5
:101B7000D7FB08B172B6FEE70F20CDE90C054FF494
:101B80008050CDE90E4001210CA81094FFF7DCFA3B
:101B9000002801D072B6FEE713B030BD40380240D5
:101BA000007000400248016841F470010160704714
:101BB00088ED00E010B5806B0021C185C184FFF77E
:101BC0007AFD10BD01680C3151E8002F22F49072AB
:101BD00041E80023002BF5D10168143151E8002FB2
:101BE00022F0010241E80023002BF5D1016B01290D
:101BF00009D101680C3151E8002F22F0100241E8B0
:101C00000023002BF5D1202180F842100021016330
:101C1000704708B590F84210222901D0022008BD73
:101C200082684FF480539A4201D1016921B1816ADF
:101C30009A421BD04AB10AE00268816A5268C2F334
:101C400008020A80816A891C08E0026972B1026890
:101C5000526802F07F020A70816A491C8162C18D5C
:101C6000491E0904090CC18503D01BE002685268B3
:101C7000F1E70168CA6822F02002CA600168CA68F8
:101C800022F48072CA6001684A6922F001024A6146
:101C9000202180F8421000214163026B012A03D009
:101CA000FFF7B2FE002008BD016301680C3151E866
:101CB000002F22F0100241E80023002BF5D101682B
:101CC0000A68D20602D50A6849680091818DFFF73B
:101CD000F1FCE7E770B5044600680169E26821F4A9
:101CE0004051114301612169A068E26908436169BB
:101CF000114308432168CA6849F20C639A430243BE
:101D0000CA6020684169A26921F4407111434161B0
:101D100031492068884202D03049884202D1FFF719
:101D2000BDFA01E0FFF7AAFAE26900231921642550
:101D30003226B2F5004F626828D0A0FB0101930F54
:101D40009200FEF7ABFA0146B0FBF5F06FF0180217
:101D5000504301EB800006EB0010B0FBF5F000F003
:101D6000F002B1FBF5F002EB0012B1FBF5F06FF001
:101D70001803584301EB800006EB0010B0FBF5F0B0
:101D800000F00F0021681044886070BDA0FB0101C5
:101D900092185B41FEF782FA0146B0FBF5F00201B2
:101DA000B1FBF5F06FF01803584301EB800006EB30
:101DB000C000B0FBF5F000F0F80002EB4002B1FB10
:101DC000F5F0584301EB800006EBC000B0FBF5F0E6
:101DD00000F00700D6E700000010014000140140A9
:101DE0002DE9F843984617460D460446089E24E020
:101DF000701C22D0FFF708F9A0EB0800B0421AD8F7
:101E0000CEB12068C168490717D5802D15D0402D67
:101E100013D00168C94309070FD401680025406841
:101E200000902046FFF7CEFE0820606484F8405002
:101E30000120BDE8F8830320FBE72068006835EA4D
:101E4000000004D00020B842D2D00020F1E70120E9
:101E5000F9E700000148FFF72FBC00001C0000203C
:101E6000FEE70907090E002804DB00F1E02080F8F6
:101E70000014704700F00F0000F1E02080F8141DFE
:101E80007047000008B502238DF800000122694662
:101E90000248FFF7BAFD9DF8000008BD1C000020B5
:101EA000FFF7C0F8FFF734FEFFF702FEFFF70EFE64
:101EB0004FF47A7403A0FEF769FA2046FEF778FF24
:101EC000F8E700004A434C0D0A0000004FF0407054
:101ED000E1EE100A7047000000000000000001025F
:101EE00003040607080900000000010203043A7415
:101EF00074003A7474003A74740000001C1F0008E7
:101F0000000000201C000000E8010008381F000845
:101F10001C000020A40700000402000801000000CB
:101F200010000000000000000024F4000000000089
:081F30000000000000000000A9
:04000005080001AD41
:00000001FF
