:020000040800F2
:10000000D00A00204D020008332200085D200008BD
:1000100031220008F90500084D2800080000000002
:10002000000000000000000000000000372200086F
:10003000C50600080000000035220008392200082B
:1000400067020008670200086702000867020008EC
:1000500067020008670200086702000867020008DC
:1000600067020008670200086702000867020008CC
:1000700067020008670200086702000867020008BC
:1000800067020008670200086702000867020008AC
:10009000670200086702000867020008670200089C
:1000A000670200086702000867020008670200088C
:1000B000670200086702000867020008670200087C
:1000C000670200086702000867020008670200086C
:1000D000670200084128000867020008670200085C
:1000E000670200086702000867020008670200084C
:1000F000670200086702000867020008670200083C
:10010000670200086702000867020008670200082B
:10011000670200086702000867020008670200081B
:10012000FD050008670200080906000867020008CC
:1001300067020008670200086702000867020008FB
:1001400067020008670200086702000867020008EB
:100150006702000867020008150600086702000829
:1001600067020008670200086702000867020008CB
:10017000670200086702000867020008000000002C
:1001800067020008670200086702000867020008AB
:10019000670200086702000867020008670200089B
:1001A00067020008670200086702000800F002F812
:1001B00000F03CF80AA090E8000C82448344AAF1C5
:1001C0000107DA4501D100F031F8AFF2090EBAE8C3
:1001D0000F0013F0010F18BFFB1A43F0010318477B
:1001E000982D0000B82D0000103A24BF78C878C1BF
:1001F000FAD8520724BF30C830C144BF04680C602D
:10020000704700000023002400250026103A28BF74
:1002100078C1FBD8520728BF30C148BF0B60704778
:100220001FB502F093FE1FBD10B510BD00F0CFF852
:100230001146FFF7F5FF02F01BFB00F0EDF803B4E9
:10024000FFF7F2FF03BC00F0F5F800000948804713
:1002500009480047FEE7FEE7FEE7FEE7FEE7FEE7A8
:10026000FEE7FEE7FEE7FEE704480549054A064BC0
:1002700070470000DD220008AD010008D004002016
:10028000D00A0020D0060020D006002053EA020C3D
:1002900000F069802DE9F04B4FF00006002B1FBFE6
:1002A000B3FA83F503FA05F424FA05F65E4012BFAB
:1002B0001643B2FA82F502FA05F4C5F120051EBF15
:1002C00022FA05FC44EA0C04203556EA044C4FEAB5
:1002D000144418BF641C4FF000084FF0000990420E
:1002E00071EB030C39D3002919BFB1FA81F701FA78
:1002F00007F6B0FA80F700FA07F6C7F120071EBF2D
:1003000020FA07FC46EA0C062037B6FBF4FCA7EB04
:100310000507103F07F01F0BCBF120060CFA0BFB73
:100320002CFA06F644BFB3460026202FA4BF5E4633
:100330004FF0000B5BEA060C08BF4FF0010B19EB06
:100340000B09ABFB027C48EB0608C01B06FB02CC8A
:100350000BFB03CC71EB0C01C1E70B460246414697
:100360004846BDE8F08B13B54FF000004FF0000198
:10037000AFF30080BDE81C4070474FF0000200B5AD
:10038000134694469646203922BFA0E80C50A0E8B8
:100390000C50B1F12001BFF4F7AF090728BFA0E866
:1003A0000C5048BF0CC05DF804EB890028BF40F832
:1003B000042B08BF704748BF20F8022B11F0804F74
:1003C00018BF00F8012B704770477047704775469B
:1003D00000F02CF8AE4605006946534620F00700B1
:1003E000854618B020B5FFF73FFFBDE820404FF02D
:1003F00000064FF000074FF000084FF0000B21F00F
:100400000701AC46ACE8C009ACE8C009ACE8C009DB
:10041000ACE8C0098D46704710B50446AFF30080C4
:100420002046BDE81040FFF70ABF000000487047B3
:100430007004002001491820ABBEFEE72600020030
:10044000704710B50146806B026C12F0500F05D05A
:10045000026CD20626D500F0FFF910BD016C41F404
:100460000071016401688A6812F0405F17D1027E52
:10047000AAB9CA6A12F4700F02D08A6852050ED463
:100480004A6822F020024A60016C21F48071016404
:10049000016CC90403D4016C41F00101016400F056
:1004A000D9F910BD806BC26CBDE8104008461047FA
:1004B00010B5806B40210164416C41F0040141643E
:1004C00000F0CAF910BD10B5806B00F0C4F910BD82
:1004D000464910B54A6822F440324A604A68436887
:1004E0001A434A6001684A6822F480724A600168CF
:1004F0004A68036942EA03224A6001684A6822F0B6
:1005000040724A6001684A6883681A434A60016819
:100510008A6822F400628A6001688A68C3681A43A4
:100520008A60816A6FF07062D14201688A6822F045
:1005300070628A6001688A680CD0836A1A438A6094
:1005400001688A6822F040528A6001688A68C36A3A
:100550001A4301E022F040528A6001688A6822F062
:1005600002028A6001688A68037E42EA43028A6066
:1005700090F82010002901684A680FD042F4006208
:100580004A6001684A6822F460424A6001684A6829
:10059000174C436A04EB43331A4301E022F4006230
:1005A0004A600168CA6A22F47002CA620168CA6AB3
:1005B000838B104C04EB03531A43CA6201688A68A8
:1005C00022F400728A6001688A6890F8303042EA4A
:1005D00043228A6001688A6822F480628A60016826
:1005E0008A68406942EA8020886010BD002301408B
:1005F00000E0FFFF0000F0FFFEE70000014800F010
:100600007FBB0000C0020020014800F079BB000061
:1006100010040020014800F073BB0000B00300206C
:1006200001681823CAB2103AB2FBF3F2054B6FF31C
:100630000901032A9B5CC36500D9091D8165084631
:1006400070470000562F000810B5014600208B6946
:100650008A6A4FF0C07453B1B3F5005F15D072B120
:10066000012A0CD0022A0AD0032A09D104E01AB1C7
:10067000012A06D0022A03D1C96AC90100D5012086
:1006800010BDC96AA142FAD010BD002AF7D0012AD4
:10069000F2D0022AF3D0032AF3D010BD30B504689B
:1006A000256825F480252560046863608368402BF5
:1006B000036803D099600068C26030BD9A6000682A
:1006C000C16030BD704772B6FEE7000010B5074844
:1006D00000F092F90121054800F038F9034800F0D4
:1006E000BCF802F038FA41EC100B10BD7802002083
:1006F00078B50024009490F83C20012A19D00122FA
:1007000080F83C200A6807230568092A13D9EE6897
:100710000A3A02EB420293409E43EE600B788A68ED
:100720000A3B03EB43039A400368DD682A43DA601F
:1007300010E0022078BD2E6902EB420293409E43F6
:100740002E610B788A6803EB43039A4003681D69A6
:100750002A431A614A681F23072A13D205686E6B61
:10076000521E02EB820293409E436E630A8893B24C
:100770000A79521E02EB820293400268556B2B43AA
:10078000536327E005680D2A12D22E6BD21F02EBAD
:10079000820293409E432E630B790A88DB1F92B23C
:1007A00003EB83039A4003681D6B2A431A6311E02D
:1007B000EE6A0D3A02EB820293409E43EE620B79A1
:1007C0000A880D3B92B203EB83039A400368DD6A0B
:1007D0002A43DA621B4B0568194A9D420AD10D680B
:1007E000122D07D1556825F400055560556845F46C
:1007F0008005556005689D421DD1134D0B68AB42C5
:1008000001D0112B17D1536823F480035360536830
:1008100043F4000353600968A9420CD10B490C4A08
:100820000968B1FBF2F101EB8101490000E0491ECA
:1008300000910029FBD180F83C40002078BD0000E9
:100840000023014000200140120000101C00002085
:1008500040420F007047704770470068C06C704797
:1008600070B504004FF0000503D0206C002610B1D5
:1008700007E0012070BD204600F01CF8666484F893
:100880003C60206CC00610D4206C20F4885040F0EE
:10089000020020642046FFF71BFE6664206C20F0F7
:1008A000020040F00100206400E0012584F83C6073
:1008B000284670BD70B586B0064614216846FFF71D
:1008C0005CFD1D493068884234D11C480025016810
:1008D00041F480710160006800F480700590174851
:1008E0001438016841F0040101600068694600F0B5
:1008F00004000590042000900320CDE90105104874
:1009000000F082FB104C0F48C4E900050015A560FB
:10091000C4E90350400060618000A0614011C4E957
:1009200007052046656200F0BBFA08B1FFF7CBFE71
:10093000B463A66306B070BD002001404438024095
:100940000008024010640240C00200202DE9F0417E
:10095000044600680D4681684FF0000749050BD535
:100960008068C00508D5206C40F02000206484F821
:100970003C700120BDE8F08100F066FC064613E003
:10098000681C11D025B100F05FFC801BA8420BD978
:1009900020680068800707D4206C40F004002064C1
:1009A00084F83C700320E5E7206800688007E7D5FD
:1009B00021686FF012000860206C40F40070206421
:1009C0002068816811F0405F13D1217E89B9C16A26
:1009D00011F4700F02D0806840050AD4206C20F416
:1009E00080702064206CC00403D4206C40F00100AF
:1009F00020640020BEE7000018B50021009190F8A7
:100A00003C20012A07D0012280F83C20026893682C
:100A1000DB0702D011E0022018BD936843F0010308
:100A200093602E4A2E4B1268B2FBF3F202EB4202A5
:100A300000E0521E0092002AFBD102689368DB0797
:100A400042D0036C40F20164A34343F48073036417
:100A500053685B0505D5036C23F4005343F48053BE
:100A60000364036CDB0404D5436C23F00603436486
:100A700000E0416480F83C101A496FF022031360D3
:100A800049680068CA06184906D0884224D181689E
:100A900011F0405F13D01FE08842F8D0134A904213
:100AA00003D1D1F80423D206F1D0114A904213D1D8
:100AB000D1F8041301F01F011029E8D30CE081687C
:100AC00041F08041816007E0016C41F01001016458
:100AD000416C41F001014164002018BD1C00002060
:100AE00040420F000023014000200140002101404E
:100AF00000220140F8B5044600200E46009094F80C
:100B00003C10012907D0012184F83C1021688B6832
:100B1000DB0702D011E00220F8BD8B6843F001032F
:100B20008B604049404B0968B1FBF3F101EB410197
:100B300000E0491E00910029FBD121688B68DB058C
:100B400003D58B6823F480738B6021688B68DB0787
:100B50005DD0236C40F20165AB4343F480732364A2
:100B60004968490505D5216C21F4005141F48051B3
:100B70002164216CC90404D5616C21F00601616413
:100B800000E0606484F83C00A16B2948274DC863ED
:100B9000A16B28480864A16B2748C86421686FF0DE
:100BA000220008602068416841F08061416020684F
:100BB000816841F4807181602168134632464C316E
:100BC000A06B00F0D7F968681C49C006206806D001
:100BD000884224D1816811F0405F13D01FE0884221
:100BE000F8D0174A904203D1D1F80423D206F1D0AD
:100BF000144A904213D1D1F8041301F01F011029B7
:100C0000E8D30CE0816841F08041816007E0206C0E
:100C100040F010002064606C40F00100606400202F
:100C2000F8BD00001C00002040420F0000230140DE
:100C300043040008C7040008B10400080020014074
:100C400000210140002201402DE9F0410446876D5A
:100C500000F0FAFA064694F835000025022806D07E
:100C60008020606584F834500120BDE8F081206860
:100C7000016821F0160101602068416921F08001BE
:100C80004161206C08B9A06C20B12068016821F096
:100C9000080101602068016821F0010101600CE099
:100CA00000F0D2FA801B052807D9202060650320B8
:100CB00084F8350084F83450D7E720680068C0070E
:100CC000EED194F85C103F208840B860012084F891
:100CD000350084F834500020C7E790F83510022919
:100CE00003D08021416501207047052180F835102F
:100CF0000068016821F001010160002070470000D8
:100D00002DE9F84304464FF00009CDF80090634800
:100D10004FF41651A56D0068B0FBF1F72E6894F8FA
:100D20005C10082000FA01F131420FD021680A68F6
:100D300052070BD50A6822F004020A6094F85C108E
:100D40008840A860606D40F00100606594F85C1018
:100D50004FF0010808FA01F0304208D021684969D3
:100D6000090604D5A860606D40F00200606594F843
:100D70005C1004208840304208D021680968890747
:100D800004D5A860606D40F00400606594F85C10C4
:100D900010208840304218D021680968090714D50E
:100DA000A86020680168490304D50068000308D5DD
:100DB000A16C07E00168C90503D4016821F00801AE
:100DC0000160216C09B12046884794F85C1020200E
:100DD0008840304231D021680968C9062DD5A86005
:100DE00094F8350005282068016806D0490347D5E6
:100DF000006800031DD4616C1CE021F01601016045
:100E00002068416921F080014161206C08B9A06C23
:100E100020B12068016821F00801016094F85C109D
:100E20003F208840A86084F8358084F83490216D94
:100E30001FE0E16B09B120468847606D00282BD088
:100E4000606DC00714D0052084F835002068016863
:100E500021F0010101600098401C0090B84203D8C5
:100E600020680068C007F6D184F8358084F8349093
:100E7000E16C002910D001B02046BDE8F0430847DE
:100E80000168C905D5D4016821F01001016084F81A
:100E9000358084F83490CCE7BDE8F8831C0000204E
:100EA0002DE9F041044600F0CFF906465CB102207E
:100EB00084F83500002584F834502068016821F05A
:100EC000010101600DE00120BDE8F08100F0BCF9F6
:100ED000801B052805D920206065032084F8350093
:100EE000F2E720680068C007F0D122681168204846
:100EF0000140D4E901031843D4E9033633431843CE
:100F000063691843A3691843E3691843236A1843C4
:100F10000843616A042903D1D4E90B131943084338
:100F2000106020684069666A20F0070130460E4371
:100F3000012704280CD1A06A0643E06A40B120468C
:100F4000FFF782FB20B14020606584F83570BAE776
:100F5000206846612046FFF763FB94F85C203F2140
:100F600091408160656584F835700020ACE7000031
:100F70003F8010F02DE9F0410446866D90F8340072
:100F8000002501280DD0012084F8340094F8357034
:100F90000020012F07D084F8340002252846BDE840
:100FA000F0810220FBE7022784F835706065204657
:100FB000FFF774FB94F85C103F208840B060206815
:100FC000016841F016010160206C20B120680168C1
:100FD00041F0080101602068016841F001010160F1
:100FE000DCE7000070B5044600F02EF90546601CF1
:100FF00002D004480078044400F026F9401BA042C7
:10100000FAD370BD100000202DE9F84FDFF8F8A1E9
:101010000022012403254FF00F090AF1040BAAF165
:10102000040E00BF0B6804FA02F63340B34270D1DD
:101030000F7907F00307012F01D0022F16D187681F
:101040004FEA420805FA08FC27EA0C07D1F80CC061
:101050000CFA08FC4CEA070CC0F808C04768B74314
:101060000E79C6F3001696403E4346600E79F6436D
:10107000B6070AD0C7684FEA420C05FA0CF6B74328
:101080008E6806FA0CF63E43C6600E7906F003063B
:10109000022E10D1D60800EB8608D8F8206057073A
:1010A0004FEAD76C09FA0CF7BE430F6907FA0CF741
:1010B0003743C8F8207006684FEA420C05FA0CF76F
:1010C000BE430F7907F0030707FA0CF737430760B1
:1010D0004E6816F4403F1CD04C4E376847F48047AA
:1010E0003760366822F0030706F480460096484EC3
:1010F00007EB060CDCF8086897073F0F09FA07F8BA
:1011000026EA0806DFF80C81404503D14FF00008BD
:1011100041E072E0DFF80081404502D14FF0010864
:1011200039E0DFF8F880404502D14FF0020832E0A4
:10113000DFF8EC80404502D14FF003082BE0DFF8E8
:10114000E480404502D14FF0040824E0DFF8D88065
:10115000404502D14FF005081DE0DFF8D080404542
:1011600002D14FF0060816E0DFF8C480404502D1F6
:101170004FF007080FE0DFF8BC80404502D14FF088
:10118000080808E0DFF8B080404502D14FF00908B8
:1011900001E04FF00A0808FA07F848EA0608CCF818
:1011A0000888DAF800605746D1F804C09E435FEA29
:1011B000CC2C00D51E433E60DBF800605F46D1F8C2
:1011C00004C09E435FEA8C2C00D51E433E60DEF8CF
:1011D00000607746D1F804C09E435FEA8C3C00D59E
:1011E0001E433E60084F083F3E68D1F804C09E434E
:1011F0005FEACC3C00D51E433E60521C102AFFF42F
:1012000011AFBDE8F88F0000083C014044380240AF
:10121000003001400000024000040240000802408B
:10122000000C02400010024000140240001802406E
:10123000001C024000200240002402400AB18161EB
:1012400070470904FBE70000014880687047000010
:1012500010000020024881680278114481607047C4
:10126000100000200B4810B5016841F400710160C6
:10127000016841F480610160016841F4807101609E
:10128000032000F06FF80F2000F006F800F024F8BB
:10129000002010BD003C024070B50D4D04464FF4D7
:1012A0007A712878B1FBF0F00A490968B1FBF0F0D7
:1012B00000F044FB48B9102C07D200222146501EF2
:1012C00000F030F800206C6070BD012070BD00009F
:1012D000100000201C0000200A4808B5016841F4F5
:1012E00080410160006800F4804000900548001FC4
:1012F000016841F080510160006800F0805000906A
:1013000008BD000044380240002809DB00F01F023D
:10131000012191404009800000F1E020C0F8001157
:1013200070470000F0B40E4B1B680C46C3F3022359
:10133000C3F10705042D00D90425191D072901D281
:10134000002300E0DB1E012606FA05F1491E2140BC
:1013500099409E40761E16403143F0BC01F077BAAA
:101360000CED00E0064900F0070208684FF6FF03A5
:10137000184040EA0220034A10430860704700000A
:101380000CED00E00000FA052DE9F843174801686C
:1013900041F0805101600068154F00F08050012637
:1013A00000903E64FFF750FF05464FF47A78114CE9
:1013B00005E000BFFFF748FF401B40450DD86068BF
:1013C000C003F7D57E64FFF73FFF0546464607E0BA
:1013D000FFF73AFF401BB04202D90320BDE8F88373
:1013E00060688003F4D50020F8E700004038024030
:1013F00000000E42007000402DE9F0470E46050047
:1014000065D0DFF81481D8F80000F7B200F00F00C3
:10141000B04207D288F80070D8F8000000F00F0042
:10142000B04254D128683D4C810712D5400703D5FE
:10143000206840F4E05020602878000703D5206839
:1014400040F4604020602068A96820F0F000084364
:1014500020602878C0072DD03049686808390128F5
:1014600012D0022813D0032811D009688907002957
:101470002DDA216821F0030101432160FFF7E4FE2A
:10148000814641F2883A0EE009688903EFE709686E
:101490008901ECE7FFF7D8FEA0EB0901514502D91D
:1014A0000320BDE8F0872068696800F00C00B0EB0D
:1014B000810FEFD1D8F80010404601F00F01B14282
:1014C00007D90770006800F00F00B04201D001207A
:1014D000E7E72878400705D52068E96820F4E05060
:1014E000084320602878000706D52068296920F481
:1014F000604040EAC100206000F038F82168084AE6
:10150000C1F30311515CC8400649086006480068F1
:10151000FFF7C2FE0020C4E7003C0240083802404A
:101520005E2F00081C00002014000020044805491C
:1015300000680968044AC1F38221515CC8407047C1
:101540001C000020083802406E2F0008044805499E
:1015500000680968044AC1F34231515CC8407047D1
:101560001C000020083802406E2F0008154810B5F6
:10157000006810F00C02144813D01449042A0FD04C
:10158000082A0ED10F4C241F2268236802F03F0264
:101590005B0207D52068C0F38810A0FB010106E0BC
:1015A000084610BD2168C1F38811A1FB000100238A
:1015B000FEF76CFE2168C1F30141491C4900B0FBF4
:1015C000F1F010BD083802400024F40040787D019D
:1015D0002DE9F84F04006ED02078DFF84C93C00757
:1015E000A9F104054AD009F104000168C1F38101A1
:1015F000012908D00068C0F3810002280AD1D9F877
:101600000000400206D52868800337D560680028AE
:10161000E1D033E06068B0F5803F10D0B0F5A02F86
:10162000286810D020F480302860286820F48020BA
:1016300028606068A8B1FFF707FE06460DE028683D
:1016400040F48030F4E740F480202860F7E700BFE2
:10165000FFF7FAFD801B642873D828688003F7D54C
:101660000CE0FFF7F1FD064605E000BFFFF7ECFDDB
:10167000801B6428F0D828688003F7D42078DFF82E
:10168000AC8280074FF0000A3ED5A748001D0168D4
:1016900011F00C0F08D00068C0F3810002280BD1B4
:1016A000D9F80000400207D42868800716D5E06802
:1016B000012800D112E033E1E068B8B10120C8F898
:1016C0000000FFF7C1FD064605E000BFFFF7BCFDC7
:1016D000801B0228C0D828688007F7D528682169B0
:1016E00020F0F80040EAC10028600DE0C8F800A032
:1016F000FFF7AAFD064604E0FFF7A6FD801B0228BF
:101700001FD828688007F7D42078000722D5864F95
:1017100087486169703771B101210160FFF794FD5D
:10172000064604E0FFF790FD801B022809D83868C0
:101730008007F7D50EE0C0F800A0FFF785FD06464C
:1017400005E082E0FFF780FD801B02287DD8386825
:101750008007F7D42078400768D5DFF8CCB10027A0
:101760000BF13C0BDBF80000C0000BD4DBF80010E1
:1017700041F08051CBF80010DBF80000012700F0A9
:10178000805000906B4E3068C00510D4306840F433
:1017900080703060FFF758FD009005E0FFF754FDC2
:1017A0000099401A022850D83068C005F6D55E4E20
:1017B000A0686C3601280FD00528306810D020F0C2
:1017C00001003060306820F004003060A068B8B1DB
:1017D000FFF73AFD00900FE0306840F00100F4E7B9
:1017E00040F004003060F7E7FFF72EFD0099411A42
:1017F00041F28830814266D830688007F4D50EE027
:10180000FFF722FD009007E0FFF71EFD0099411A47
:1018100041F28830814256D830688007F4D42FB125
:10182000DBF8001021F08051CBF80010A069C8B39C
:101830003D49091D0968C1F3810102294AD00228E6
:10184000504607D0C8F8600000E03CE0FFF7FCFC21
:1018500004463BE04746C8F86000FFF7F5FC064643
:1018600005E000BFFFF7F0FC801B02282BD828689A
:101870008001F7D4D4E907010843A16A2E4A490838
:1018800002EB0141626A41EA8211084394F82C108C
:1018900040EA0161C9F8001001203866FFF7D4FC66
:1018A000044606E03EE000BFFFF7CEFC001B022826
:1018B00009D828688001F7D534E000BFFFF7C4FCE1
:1018C000001B022802D90320BDE8F88F2868800198
:1018D000F4D427E00128F7D0D9F80000E26900F439
:1018E000800191421CD1226A00F03F01914217D140
:1018F00047F6C071626A0140B1EB821F10D1A26A43
:101900004FF0FF3300F4403103EB5202B1EB024FD2
:1019100006D194F82C1000F07060B0EB016F01D08C
:101920000120D1E70020CFE7043802400000474201
:10193000800E4742007000400000FFFF10B5401EBF
:10194000B0F1807F01D3012010BD4FF0E024606131
:101950000F21601700F07BFF0020A06107202061AD
:10196000002010BD70B590F83C20012A32D001242F
:1019700080F83C40022280F83D2003685A689D6848
:1019800022F070060A6832435A60134B02689A428A
:1019900014D0B2F1804F11D0104B9A420ED0104BA0
:1019A0009A420BD00F4B9A4208D00F4B9A4205D067
:1019B0000E4B9A4202D00E4B9A4204D1496825F050
:1019C00080031943916080F83D40002180F83C106D
:1019D000084670BD022070BD0000014000040040B8
:1019E00000080040000C004000040140004001409D
:1019F0000018004010B5040003D094F83D0010B169
:101A000007E0012010BD002084F83C00204600F0D3
:101A10001FF8022084F83D00211D206800F066FCBC
:101A2000012084F8460084F83E0084F83F0084F8E2
:101A3000400084F8410084F8420084F8430084F8B0
:101A4000440084F8450084F83D00002010BD0000EB
:101A500008B500680649884208D10648016841F087
:101A600002010160006800F00200009008BD000063
:101A7000000400404038024090F83D10012901D098
:101A800001207047022180F83D100068114988420A
:101A900014D0B0F1804F11D00F4988420ED00F49B9
:101AA00088420BD00E49884208D00E49884205D0A2
:101AB0000D49884202D00D49884204D1816801F065
:101AC0000701062903D0016841F0010101600020EF
:101AD0007047000000000140000400400008004082
:101AE000000C00400004014000400140001800408C
:101AF00070B5044690F83C000025012817D0012657
:101B000084F83C60022084F83D002068826822F05E
:101B1000770222F47F4282600868502838D00DDCBA
:101B200020284FD005DC90B3102811D14AE00220C4
:101B300070BD302846D040280AD13BE060282FD025
:101B400070280DD0B0F5805F03D0B0F5005F12D0E3
:101B5000012584F83D60002084F83C00284670BDD3
:101B6000CB68D1E90121206800F02CFC2068816855
:101B700041F0770109E0CB68D1E90121206800F04C
:101B800021FC2068816841F480418160E1E719E02F
:101B9000CA684968206800F027FC5021206806E0E8
:101BA000CA684968206800F030FC6021206800F0B5
:101BB00013FCCEE7CA684968206800F015FC402194
:101BC0002068F4E7226801461046F0E77047704746
:101BD000F8B5016804460868CA684B6910F00F0F31
:101BE0004FF0000559D003F0010602F49077374317
:101BF00065D0C10705D0D10503D5616C41F0010165
:101C00006164410705D5D90703D0616C41F0020139
:101C10006164810705D5D90703D0616C41F00401E7
:101C20006164010707D502F02001314303D0616CE4
:101C300041F008016164616C00293AD0800604D546
:101C4000900602D5204600F0CCFC20684069616C0B
:101C5000C0F38010090700D460B3204600F08CFC6C
:101C600020684069400621D52068143050E8001FE4
:101C700021F0400140E80012002AF5D1E06BA8B144
:101C80006E490165E06BFFF728F8002811D0E06B82
:101C9000016D01B0BDE8F040084783060FD59306FB
:101CA0000DD52046BDE8F84000F09BBC2046FFF76C
:101CB0008EFFF8BD2046FFF78AFF6564F8BD266BEE
:101CC0002023012E7DD1C6067BD5D60679D508689E
:101CD0004868009048694FF00206400641D5E16B24
:101CE000086840680004000CE8D0A28D8242E5D963
:101CF000E085C869B0F5807F2DD020680C3050E8B1
:101D0000001F21F4807140E80012002AF5D12068FC
:101D1000143050E8001F21F0010140E80012002AB1
:101D2000F5D12068143050E8001F21F0400140E850
:101D30000012002AF5D184F84230256320680C3067
:101D400050E8001F21F0100140E80012002AF5D1F0
:101D5000E06BFEF779FF6663A08DE18D401A81B2DA
:101D60002AE0A08DE18D401A81B2E08D0028A5D037
:101D70000029A3D022680C3252E8000F20F49070A2
:101D800042E80007002FF5D12068143050E8002FFA
:101D900022F0010240E80027002FF5D184F84230FC
:101DA000256320680C3050E8002F22F0100240E834
:101DB0000023002BF5D166632046FFF707FFF8BD2F
:101DC000FFE705062BD5150629D594F841002128F3
:101DD000F5D1A068B0F5805F01D12069B0B1206A6B
:101DE000411C2162216800784860E08C401E00049C
:101DF000000CE084E3D12068C16821F08001C1605B
:101E00002068C16841F04001C160D8E7206A0088BD
:101E1000C0F308004860206A801C2062E5E74006A5
:101E2000CDD55006CBD5CA68204622F04002CA6004
:101E300084F8413000F010F9C1E700002F240008B9
:101E400070B5040004D094F84100002510B106E0FC
:101E5000012070BD84F84050204600F023F8242073
:101E600084F841002068C16821F40051C160204617
:101E700000F018FC2068016921F49041016120689C
:101E8000416921F02A0141612068C16841F4005193
:101E9000C1606564202084F8410084F842006563D5
:101EA000002070BD2DE9F04186B006461421684639
:101EB000FEF763FA2F493068884258D12E48002433
:101EC000016841F010010160006800F01000059009
:101ED00029481438016841F0010101600068694631
:101EE00000F0010005904FF4C06000900220CDE9A1
:101EF000010403200390072004902048FFF784F892
:101F0000204D1F484FF00067E5E8020740204FF4DE
:101F10008068A5E811011B4845F81449AC61EC61E3
:101F20002C626C62FEF7BCFF08B1FEF7CCFBB56318
:101F3000AE63144D1248603578382860C5E90174E5
:101F4000C5E903486C61AC61EC612C6228466C62A7
:101F5000FEF7A6FF08B1FEF7B6FBF56300221146B7
:101F60002520AE63FFF7DEF92520FFF7CDF906B097
:101F7000BDE8F081001001404438024000000240FA
:101F8000B8640240B003002090F84230202B01D00A
:101F90000220704721B11AB10023036300F008BC8E
:101FA000012070470A4810B501780A48302902D04C
:101FB000312902D005E0002200E001228021FFF754
:101FC0003DF9BDE81040012201490348FFF7DCBF9D
:101FD0000000002000040240680300207047000059
:101FE00070B5044690F84100202801D0022070BD51
:101FF00049B342B32162A284E284002060642123B9
:1020000084F84130A56B114BEB63A56B104B2B642F
:10201000A56B104BEB64A36B1865256813462A1D4E
:10202000A06BFEF7A7FF21686FF0400008602068F2
:10203000143050E8001F41F0800140E80012002AEF
:10204000F5D1002070BD012070BD00002D250008D5
:102050006F2500083F24000870477047FEE7000026
:102060007FB5002416480094019402941349039408
:1020700001604FF48031C0E901140461047680F8F6
:1020800020400903C1620125C5614910C460816215
:1020900080F830504561FEF7E3FB08B1FEF713FB13
:1020A0000C20CDE90005694602940548FEF720FBA7
:1020B000002801D0FEF707FB7FBD00000020014093
:1020C00078020020114808B5016841F480010160E0
:1020D0000068002200F48000009011463820FFF7CD
:1020E00021F93820FFF710F9002211463A20FFF7B6
:1020F00019F93A20FFF708F9002211464620FFF7A8
:1021000011F9BDE808404620FFF7FEB8303802401C
:1021100030B587B014216846FEF72FF9194800241E
:10212000016841F080010160016801F080010591C2
:10213000016841F004010160016801F004010591AA
:10214000016841F001010160016801F001010591A0
:10215000016841F00201016000680B4D00F00200CF
:102160000590002280212846FFF768F88020009023
:102170000120CDE90104694628460394FEF744FF97
:1021800007B030BD303802400004024010B586B0C0
:102190000024184800940194029403940494144970
:1021A000059401606321C0E9011440F28331C0E964
:1021B000031480218161FFF71DFC08B1FEF783FA4B
:1021C0004FF48050009069460A48FFF791FC08B12F
:1021D000FEF779FA2020CDE9040404A90548FFF7A9
:1021E000C1FB002801D0FEF76EFA06B010BD00005A
:1021F00000040040200300200C4810B50A4901608B
:102200004FF4E1314160002181600C22C160C0E9DE
:1022100004128161C161FFF713FE002803D0BDE8FD
:102220001040FEF750BA10BD0010014068030020B6
:10223000FEE7FEE770477047FFF70CB830B593B084
:1022400030216846FEF799F814210CA8FEF795F89E
:1022500020480024016841F080510160006800F0CE
:10226000805011901C48016821F4404141F48041A4
:1022700001600068022500F44040119001200390A5
:1022800010200490009506950820CDE907405A20BB
:10229000CDE9090504200B906846FFF799F908B1CC
:1022A00072B6FEE7FFF770F808B172B6FEE70F20CE
:1022B000CDE90C054FF48050CDE90E4002210CA869
:1022C0001094FFF799F8002801D072B6FEE713B01A
:1022D00030BD0000403802400070004002480168F4
:1022E00041F470010160704788ED00E0F0B50268CC
:1022F000294C2A4D2A4E2B4F2B4B4FF0804CA0429D
:1023000009D0604507D0A84205D0B04203D0B842FA
:1023100001D0984204D122F0700E4A6842EA0E02BF
:10232000A0421BD0604519D0A84217D0B04215D0AA
:10233000B84213D0984211D01C4DA8420ED01C4D6B
:10234000A8420BD01B4DA84208D01B4DA84205D077
:102350001A4DA84202D01A4DA84203D122F440756A
:10236000CA682A434D6922F080022A4302608A68C3
:10237000C2620A688262A04201D0984201D1096912
:102380000163012141610169C90703D0016921F09D
:1023900001010161F0BD00000000014000040040A7
:1023A00000080040000C00400004014000400140D3
:1023B000004401400048014000180040001C00405B
:1023C0000020004010B5846842EA032224F47F44D0
:1023D0000A432243826010BD826822F070020A43E1
:1023E00042F007018160704710B5036A046A24F067
:1023F00001040462846924F0F00444EA021423F026
:102400000A020A438461026210BD10B5036A046ABD
:1024100024F010040462846923F0A00324F47044BF
:1024200044EA023243EA01118261016210BD10B533
:10243000806B0021C185C184FFF7C9FB10BD70B559
:10244000846B2068406994F84110C0F3C0100025E7
:10245000212904D118B1E584204600F0B4F82068A1
:10246000406994F84210C0F38010222904D118B1B9
:10247000E585204600F080F8606C40F01000606454
:102480002046FFF7A4FB70BD10B50146806B0968BC
:1024900009684FF00002C9052ED4C28501680C31CD
:1024A00051E8003F23F4807341E80034002CF5D15B
:1024B0000168143151E8003F23F0010341E8003482
:1024C000002CF5D10168143151E8003F23F040039E
:1024D00041E80034002CF5D1202180F84210016B36
:1024E000012909D101680C3151E8003F23F01003A4
:1024F00041E80034002CF5D14263016B012902D080
:10250000FFF750FD10BD818DFFF760FB10BD10B5CA
:10251000806B01214163016B012902D0FFF75EFD51
:1025200010BD818D4908FFF751FB10BD10B5014664
:10253000806B09680968C90516D40021C184016847
:10254000143151E8002F22F0800241E80023002BD3
:10255000F5D101680C3151E8002F42F0400241E80A
:102560000023002BF5D110BDFFF776FD10BD10B58F
:10257000806BFFF772FD10BD01680C3151E8002F30
:1025800022F4907241E80023002BF5D10168143148
:1025900051E8002F22F0010241E80023002BF5D181
:1025A000016B012909D101680C3151E8002F22F09B
:1025B000100241E80023002BF5D1202180F84210C1
:1025C00000210163704701680C3151E8002F22F0AF
:1025D000C00241E80023002BF5D1202180F84110F2
:1025E000704708B590F84210222901D0022008BD9A
:1025F00082684FF480539A4201D1016921B1816A06
:102600009A421BD04AB10AE00268816A5268C2F35A
:1026100008020A80816A891C08E0026972B10268B6
:10262000526802F07F020A70816A491C8162C18D82
:10263000491E0904090CC18503D01BE002685268D9
:10264000F1E70168CA6822F02002CA600168CA681E
:1026500022F48072CA6001684A6922F001024A616C
:10266000202180F8421000214163026B012A03D02F
:10267000FFF798FC002008BD016301680C3151E8A8
:10268000002F22F0100241E80023002BF5D1016851
:102690000A68D20602D50A6849680091818DFFF761
:1026A00095FAE7E770B5044600680169E26821F42D
:1026B0004051114301612169A068E26908436169E1
:1026C000114308432168CA6849F20C639A430243E4
:1026D000CA6020684169A26921F4407111434161D7
:1026E00031492068884202D03049884202D1FEF741
:1026F0002DFF01E0FEF71AFFE2690023192164258E
:102700003226B2F5004F626828D0A0FB0101930F7A
:102710009200FDF7BBFD0146B0FBF5F06FF018022B
:10272000504301EB800006EB0010B0FBF5F000F029
:10273000F002B1FBF5F002EB0012B1FBF5F06FF027
:102740001803584301EB800006EB0010B0FBF5F0D6
:1027500000F00F0021681044886070BDA0FB0101EB
:1027600092185B41FDF792FD0146B0FBF5F00201C6
:10277000B1FBF5F06FF01803584301EB800006EB56
:10278000C000B0FBF5F000F0F80002EB4002B1FB36
:10279000F5F0584301EB800006EBC000B0FBF5F00C
:1027A00000F00700D6E700000010014000140140CF
:1027B00038B5816204468285002013466064222277
:1027C00084F84220E56B1B4AEA63E56B1A4A2A64E7
:1027D000E56B1A4AEA64E26B10650A462168E06B11
:1027E000091DFEF7C7FB206801684068009020695A
:1027F00048B120680C3050E8001F41F4807140E877
:102800000012002AF5D12068143050E8001F41F072
:10281000010140E80012002AF5D12068143050E888
:10282000001F41F0400140E80012002AF5D10020CD
:1028300038BD0000892400080F2500083F24000847
:102840000148FFF7C5B9000068030020FEE709074B
:10285000090E002804DB00F1E02080F80014704726
:1028600000F00F0000F1E02080F8141D7047000018
:102870002DED0E8BFEF7F6FCFFF7E0FCFFF748FCB2
:10288000FFF720FCFFF7B8FCFFF7EAFBFFF77EFC41
:10289000C82238493848FEF72DF93848FFF7ECF8D8
:1028A0009FED37AB9FED38BB394E9FED3ACB9FED97
:1028B0003BDB3C4F4FF02E08012235493A48FFF7E9
:1028C00063FBFDF703FF53EC1A2B51EC100B00F0E8
:1028D00055F953EC1B2B00F051F941EC180B86ED28
:1028E000028B00F00BF9C4B204EB8400747040005A
:1028F00000F031F941EC190B53EC1C2B51EC180B87
:1029000000F03CF953EC192B00F036FA00F0F6F821
:10291000C5B2B570642014FB00F000F01CF941EC66
:10292000190B05EB8500400000F015F941EC1E0B7A
:1029300053EC1D2B51EC180B00F020F953EC1E2B1F
:1029400000F01AFA53EC192B00F016FA00F0D6F842
:10295000F07030343C7087F801803035BD70303015
:10296000F870C8220F491048FFF73AFBC820FEF75D
:1029700039FBA1E72000002078020020200300207E
:102980006666666666660A40000000000000303F2A
:1029900000000020000000000000244000000000B3
:1029A00000005940B00100206803002010B591EAF2
:1029B000030F48BF83F0004300F1E681841A71EBF6
:1029C000030C05D2121943EB0C03001B61EB0C0145
:1029D000DFF824E14FEA1154A4EB135C1EEA430F25
:1029E00018BF9EEA445F73D023EA0E03DCF1200E89
:1029F00021EA045143F4801332D322FA0CFE10EB87
:102A00000E0023FA0CFE41EB0E01CCF1200E03FA6E
:102A10000EFE10EB0E0051F10001B1F5801FCCF15C
:102A2000200E32D201EB045112FA0EF2BDE8104032
:102A300058BF7047401C38BF5FEA420218BF70475A
:102A4000002814BF20F0010041F100014FEA4103CA
:102A500013F5001F38BF7047A1F1C04100F086B9DF
:102A6000012A43EB0302ACF1200CDCF11F0E32BF54
:102A70004FF0000E23FA0CF310EB030041EB04516E
:102A8000B4EB115FD0D0A1EB045101F580114908DE
:102A90005FEA300001EB04510ED350F1000038BF63
:102AA00012FA0EFE08D1BDE81040C9E7401C38BF3D
:102AB0005FEA4202CAD1C3E7BDE810404FEA4103D2
:102AC00013F5001F38BF7047A1F1C04100F04EB9A7
:102AD0009EEA445F08D011EA5E0FBDE8104004BFD3
:102AE00001F0004100207047BDE8104070B500F0D3
:102AF000EFF800BF64FBBE3E0000E0FF4FEA115359
:102B0000A3F58063D3F11E03A8BFD3F1200C08DB2B
:102B10004FF0004242EAC12252EA505232FA03F028
:102B2000704709420BD4102BC4BF0020704703F537
:102B3000787CBCF1FF3F05D04FF0FF3070474FF07D
:102B40000000704770B500F0C3F800BF49922480C0
:102B500000207047F0E7B0FA80F310FA03F10AD0D2
:102B6000C3F11D0303F580634FEA41504FEA03525E
:102B700002EBD12170474FF000007047DFF848C1E9
:102B800070B51CEA111E1EBF1CEA13159EEA0C0F3D
:102B900095EA0C0F00F06F8081EA030423EA4C13DE
:102BA0004EEAD47E21EA4C1141F4801143F48013A3
:102BB000AE44A1FB024CA0FB0365AEF17F7E36194B
:102BC00055EB0C05A1FB034C4CF10003A0FB021CD0
:102BD00016EB0C06654153F10003094218BF46F09D
:102BE000010613F4007F0BD14FEA03314FEA0530A1
:102BF000340341EA155140EA16506FF003020AE02F
:102C00004FEAC3214FEAC520F40241EA555140EA98
:102C100056506FF0020202EB2E4201EB025585EA9C
:102C2000CE710AD05FEA440C18BF24F0004450F182
:102C3000000041F1000120EAD47040F2FE7C6245C0
:102C400000D270BDA84214BF4FF080444FF0404402
:102C5000002E08BF0024BEF1806FA8BFA1F1C041C3
:102C6000BDE8704080F282804FF0000001F1C04169
:102C700001F0004170479EEA0C0F0CEA131518BFD3
:102C800095EA0C0F06D04FF0000081EA030E0EF01B
:102C9000004170BD00F01CF88900013E00F007B84B
:102CA00000F009B84FEA430C5FEA5C5C08D081EAA7
:102CB000030100F05BB84FEA410C5FEA5C5CF6D1BF
:102CC0004FF00000014970470000FF070000F87F47
:102CD0000EF1020E2EF0030E5EF8046B364205D4A0
:102CE000012A43EB030515F5001F12D8012841EB1B
:102CF000010C1CF5001F0CD80ED14FEAD17C15F544
:102D0000001F0CEB4C0C0CF1020C08BF4CEBD37CFD
:102D100004E04FF0080C01E04FEAD37C0CEB4C05CB
:102D200026FA05F606F00706B6F1040C06D20EEBFD
:102D3000860CBDE870404CF0010C6047DFE80CF0F9
:102D4000090B02024FF000414FF00000A1F50021F5
:102D500070BD19461046012851EB010418BFD4F587
:102D6000001484BF002001F0004170BD0808A0F5E8
:102D700000114FEA3101704710B591EA030F48BFC7
:102D800083F000433FF51AAE841A71EB030C07D2AF
:102D900012198CF0004C43EB0C03001B61EB0C018F
:102DA000DFF8A4E14FEA1154A4EB135C1EEA430FD1
:102DB00018BF9EEA445F00F0B08023EA6E035242DF
:102DC00021EA0451C3EB6E0338BF5B1EDCF1200E19
:102DD00025D322FA0CFE10EB0E0043FA0CFE41EB59
:102DE0000E01CCF1200E03FA0EFE10EB0E0051F195
:102DF0000001CCF1200E29D412FA0EF201EB04519D
:102E0000BDE8104058BF7047401C1CBFB2F1004FD6
:102E1000704700280CBF491C20F00100704712EBDE
:102E2000020E43EB030218BF4FF0010E4EEA4202BE
:102E3000ACF1200CDCF11E0E54D943FA0CFE10EB61
:102E40000E0051F1FF31CCF11E0ED5D50EF1010E61
:102E500012FA0EFE404141EB010101EB445C5FEAD6
:102E60005C5C10D910EBDE7001EB045138BFBEF191
:102E7000004FBDE8104018BF704700280CBF491C28
:102E800020F00100704730D24FEAD42C11F5001128
:102E900024F400641BD0B1FA81F20B3AA41AA41EE8
:102EA000D2F12003914030FA03F31943904001EB33
:102EB000CC71002C01EB0451BDE81040A8BF704755
:102EC00001F1C0414FF0000001F000417047B0FA3D
:102ED00080F310FA03F100D110BDE41A173C480545
:102EE000C90AE4E701EB045110BD491001EB04519C
:102EF000BDE810404FEA300002E04FF0000170479B
:102F00004A0008BF0042F8D0B2F5001F28BF704742
:102F100001F000414FF0000070479EEA445F07D087
:102F200011EA5E0FBDE8104004BF00210020704789
:102F3000BDE8104070B5FFF7CBFE00BF40DFF63EA6
:102F400083F00041104670470000E0FF4FF04070F2
:102F5000E1EE100A70470006101600061016000079
:102F60000000000000000102030406070809000039
:102F70000000010203040000982F00080000002058
:102F800020000000E8010008B82F00082000002001
:102F9000B00A000004020008000000000000000069
:102FA0000000000000000000010000001000000010
:082FB000000000000024F40001
:04000005080001AD41
:00000001FF
