:020000040800F2
:10000000B80600204D020008DF130008C3120008E4
:10001000DD130008430400088316000800000000F8
:10002000000000000000000000000000E3130008D2
:100030004504000800000000E1130008E513000873
:1000400067020008670200086702000867020008EC
:1000500067020008670200086702000867020008DC
:1000600067020008670200086702000867020008CC
:1000700067020008670200086702000867020008BC
:1000800067020008670200086702000867020008AC
:10009000670200086702000867020008670200089C
:1000A000670200086702000867020008670200088C
:1000B0008D14000867020008670200086702000844
:1000C000670200086702000867020008670200086C
:1000D000670200086702000867020008670200085C
:1000E000670200086702000867020008670200084C
:1000F000670200086702000867020008670200083C
:10010000670200086702000867020008670200082B
:10011000670200086702000867020008670200081B
:10012000670200086702000867020008670200080B
:1001300067020008670200086702000867020008FB
:1001400067020008670200086702000867020008EB
:1001500067020008670200086702000867020008DB
:1001600067020008670200086702000867020008CB
:10017000670200086702000867020008000000002C
:1001800067020008670200086702000867020008AB
:10019000670200086702000867020008670200089B
:1001A00067020008670200086702000800F002F812
:1001B00000F03CF80AA090E8000C82448344AAF1C5
:1001C0000107DA4501D100F031F8AFF2090EBAE8C3
:1001D0000F0013F0010F18BFFB1A43F0010318477B
:1001E000FC1400001C150000103A24BF78C878C128
:1001F000FAD8520724BF30C830C144BF04680C602D
:10020000704700000023002400250026103A28BF74
:1002100078C1FBD8520728BF30C148BF0B60704778
:100220001FB501F04DFA1FBD10B510BD00F0CFF89D
:100230001146FFF7F5FF01F035FA00F0EDF803B4D1
:10024000FFF7F2FF03BC00F0F5F800000948804713
:1002500009480047FEE7FEE7FEE7FEE7FEE7FEE7A8
:10026000FEE7FEE7FEE7FEE704480549054A064BC0
:10027000704700007D140008AD010008B8000020A0
:10028000B8060020B8020020B802002053EA020C91
:1002900000F069802DE9F04B4FF00006002B1FBFE6
:1002A000B3FA83F503FA05F424FA05F65E4012BFAB
:1002B0001643B2FA82F502FA05F4C5F120051EBF15
:1002C00022FA05FC44EA0C04203556EA044C4FEAB5
:1002D000144418BF641C4FF000084FF0000990420E
:1002E00071EB030C39D3002919BFB1FA81F701FA78
:1002F00007F6B0FA80F700FA07F6C7F120071EBF2D
:1003000020FA07FC46EA0C062037B6FBF4FCA7EB04
:100310000507103F07F01F0BCBF120060CFA0BFB73
:100320002CFA06F644BFB3460026202FA4BF5E4633
:100330004FF0000B5BEA060C08BF4FF0010B19EB06
:100340000B09ABFB027C48EB0608C01B06FB02CC8A
:100350000BFB03CC71EB0C01C1E70B460246414697
:100360004846BDE8F08B13B54FF000004FF0000198
:10037000AFF30080BDE81C4070474FF0000200B5AD
:10038000134694469646203922BFA0E80C50A0E8B8
:100390000C50B1F12001BFF4F7AF090728BFA0E866
:1003A0000C5048BF0CC05DF804EB890028BF40F832
:1003B000042B08BF704748BF20F8022B11F0804F74
:1003C00018BF00F8012B704770477047704775469B
:1003D00000F02CF8AE4605006946534620F00700B1
:1003E000854618B020B5FFF73FFFBDE820404FF02D
:1003F00000064FF000074FF000084FF0000B21F00F
:100400000701AC46ACE8C009ACE8C009ACE8C009DB
:10041000ACE8C0098D46704710B50446AFF30080C4
:100420002046BDE81040FFF70ABF000000487047B3
:100430005800002001491820ABBEFEE7260002004C
:100440007047FEE7704700002DE9F84FDFF8F8A18C
:100450000022012403254FF00F090AF1040BAAF131
:10046000040E00BF0B6804FA02F63340B34270D1A9
:100470000F7907F00307012F01D0022F16D18768EB
:100480004FEA420805FA08FC27EA0C07D1F80CC02D
:100490000CFA08FC4CEA070CC0F808C04768B743E0
:1004A0000E79C6F3001696403E4346600E79F64339
:1004B000B6070AD0C7684FEA420C05FA0CF6B743F4
:1004C0008E6806FA0CF63E43C6600E7906F0030607
:1004D000022E10D1D60800EB8608D8F82060570706
:1004E0004FEAD76C09FA0CF7BE430F6907FA0CF70D
:1004F0003743C8F8207006684FEA420C05FA0CF73B
:10050000BE430F7907F0030707FA0CF7374307607C
:100510004E6816F4403F1CD04C4E376847F4804775
:100520003760366822F0030706F480460096484E8E
:1005300007EB060CDCF8086897073F0F09FA07F885
:1005400026EA0806DFF80C81404503D14FF0000889
:1005500041E072E0DFF80081404502D14FF0010830
:1005600039E0DFF8F880404502D14FF0020832E070
:10057000DFF8EC80404502D14FF003082BE0DFF8B4
:10058000E480404502D14FF0040824E0DFF8D88031
:10059000404502D14FF005081DE0DFF8D08040450E
:1005A00002D14FF0060816E0DFF8C480404502D1C2
:1005B0004FF007080FE0DFF8BC80404502D14FF054
:1005C000080808E0DFF8B080404502D14FF0090884
:1005D00001E04FF00A0808FA07F848EA0608CCF8E4
:1005E0000888DAF800605746D1F804C09E435FEAF5
:1005F000CC2C00D51E433E60DBF800605F46D1F88E
:1006000004C09E435FEA8C2C00D51E433E60DEF89A
:1006100000607746D1F804C09E435FEA8C3C00D569
:100620001E433E60084F083F3E68D1F804C09E4319
:100630005FEACC3C00D51E433E60521C102AFFF4FA
:1006400011AFBDE8F88F0000083C0140443802407B
:100650000030014000000240000402400008024057
:10066000000C02400010024000140240001802403A
:10067000001C02400020024000240240426921EA9E
:1006800002030A4043EA0241816170470AB1816175
:1006900070470904FBE700000148806870470000CC
:1006A0000000002002488168027811448160704790
:1006B000000000200B4810B5016841F40071016092
:1006C000016841F480610160016841F4807101605A
:1006D000032000F06FF80F2000F006F800F024F877
:1006E000002010BD003C024070B50D4D04464FF493
:1006F0007A712878B1FBF0F00A490968B1FBF0F093
:1007000000F0EAFA48B9102C07D200222146501E08
:1007100000F030F800206C6070BD012070BD00005A
:10072000000000200C0000200A4808B5016841F4D0
:1007300080410160006800F4804000900548001F7F
:10074000016841F080510160006800F08050009025
:1007500008BD000044380240002809DB00F01F02F9
:10076000012191404009800000F1E020C0F8001113
:1007700070470000F0B40E4B1B680C46C3F3022315
:10078000C3F10705042D00D90425191D072901D23D
:10079000002300E0DB1E012606FA05F1491E214078
:1007A00099409E40761E16403143F0BC00F06ABF6F
:1007B0000CED00E0064900F0070208684FF6FF0361
:1007C000184040EA0220034A1043086070470000C6
:1007D0000CED00E00000FA052DE9F0470E4605009B
:1007E00065D0DFF81481D8F80000F7B200F00F00F0
:1007F000B04207D288F80070D8F8000000F00F006F
:10080000B04254D128683D4C810712D5400703D52A
:10081000206840F4E05020602878000703D5206865
:1008200040F4604020602068A96820F0F000084390
:1008300020602878C0072DD0304968680839012821
:1008400012D0022813D0032811D009688907002983
:100850002DDA216821F0030101432160FFF71CFF1D
:10086000814641F2883A0EE009688903EFE709689A
:100870008901ECE7FFF710FFA0EB0901514502D910
:100880000320BDE8F0872068696800F00C00B0EB39
:10089000810FEFD1D8F80010404601F00F01B142AE
:1008A00007D90770006800F00F00B04201D00120A6
:1008B000E7E72878400705D52068E96820F4E0508C
:1008C000084320602878000706D52068296920F4AD
:1008D000604040EAC100206000F018F82168084A32
:1008E000C1F30311515CC84006490860064800681E
:1008F000FFF7FAFE0020C4E7003C0240083802403F
:10090000CA1600080C00002004000020154810B58D
:10091000006810F00C02144813D04110042A0FD0C4
:10092000082A0ED10F4C241F2268236802F03F02D0
:100930005B0207D52068C0F38810A0FB010106E028
:10094000084610BD2168C1F38811A1FB00010023F6
:10095000FFF79CFC2168C1F30141491C4900B0FB31
:10096000F1F010BD083802400024F4002DE9F84FE2
:1009700004006ED02078DFF84C93C007A9F104057D
:100980004AD009F104000168C1F38101012908D0AE
:100990000068C0F3810002280AD1D9F800004002A3
:1009A00006D52868800337D560680028E1D033E099
:1009B0006068B0F5803F10D0B0F5A02F286810D047
:1009C00020F480302860286820F480202860606847
:1009D000A8B1FFF761FE06460DE0286840F48030BC
:1009E000F4E740F480202860F7E700BFFFF754FEEB
:1009F000801B642873D828688003F7D50CE0FFF7C4
:100A00004BFE064605E000BFFFF746FE801B64284C
:100A1000F0D828688003F7D42078DFF8AC8280070C
:100A20004FF0000A3ED5A748001D016811F00C0FD9
:100A300008D00068C0F3810002280BD1D9F800006B
:100A4000400207D42868800716D5E068012800D145
:100A500012E033E1E068B8B10120C8F80000FFF708
:100A60001BFE064605E000BFFFF716FE801B0228AE
:100A7000C0D828688007F7D52868216920F0F800D9
:100A800040EAC10028600DE0C8F800A0FFF704FEAE
:100A9000064604E0FFF700FE801B02281FD82868E6
:100AA0008007F7D42078000722D5864F87486169F0
:100AB000703771B101210160FFF7EEFD064604E0D9
:100AC000FFF7EAFD801B022809D838688007F7D5B0
:100AD0000EE0C0F800A0FFF7DFFD064605E082E06B
:100AE000FFF7DAFD801B02287DD838688007F7D42D
:100AF0002078400768D5DFF8CCB100270BF13C0B1C
:100B0000DBF80000C0000BD4DBF8001041F080518E
:100B1000CBF80010DBF80000012700F080500090B7
:100B20006B4E3068C00510D4306840F4807030607F
:100B3000FFF7B2FD009005E0FFF7AEFD0099401A07
:100B4000022850D83068C005F6D55E4EA0686C36D5
:100B500001280FD00528306810D020F00100306047
:100B6000306820F004003060A068B8B1FFF794FD51
:100B700000900FE0306840F00100F4E740F004001E
:100B80003060F7E7FFF788FD0099411A41F288309D
:100B9000814266D830688007F4D50EE0FFF77CFD0F
:100BA000009007E0FFF778FD0099411A41F2883084
:100BB000814256D830688007F4D42FB1DBF800109A
:100BC00021F08051CBF80010A069C8B33D49091D40
:100BD0000968C1F3810102294AD00228504607D092
:100BE000C8F8600000E03CE0FFF756FD04463BE03B
:100BF0004746C8F86000FFF74FFD064605E000BF16
:100C0000FFF74AFD801B02282BD828688001F7D403
:100C1000D4E907010843A16A2E4A490802EB0141C1
:100C2000626A41EA8211084394F82C1040EA01619B
:100C3000C9F8001001203866FFF72EFD044606E0D3
:100C40003EE000BFFFF728FD001B022809D82868F6
:100C50008001F7D534E000BFFFF71EFD001B02281E
:100C600002D90320BDE8F88F28688001F4D427E07A
:100C70000128F7D0D9F80000E26900F48001914220
:100C80001CD1226A00F03F01914217D147F6C07192
:100C9000626A0140B1EB821F10D1A26A4FF0FF33AC
:100CA00000F4403103EB5202B1EB024F06D194F84D
:100CB0002C1000F07060B0EB016F01D00120D1E783
:100CC0000020CFE70438024000004742800E474230
:100CD000007000400000FFFF10B5401EB0F1807FA3
:100CE00001D3012010BD4FF0E02460610F21601797
:100CF00000F0C8FC0020A06107202061002010BD8A
:100D00007047704770B590F83C20012A32D001241A
:100D100080F83C40022280F83D2003685A689D68B4
:100D200022F070060A6832435A60134B02689A42F6
:100D300014D0B2F1804F11D0104B9A420ED0104B0C
:100D40009A420BD00F4B9A4208D00F4B9A4205D0D3
:100D50000E4B9A4202D00E4B9A4204D1496825F0BC
:100D600080031943916080F83D40002180F83C10D9
:100D7000084670BD022070BD000001400004004024
:100D800000080040000C0040000401400040014009
:100D90000018004010B5040003D094F83D0010B1D5
:100DA00007E0012010BD002084F83C00204600F040
:100DB0001FF8022084F83D00211D206800F06CFB24
:100DC000012084F8460084F83E0084F83F0084F84F
:100DD000400084F8410084F8420084F8430084F81D
:100DE000440084F8450084F83D00002010BD000058
:100DF00010B586B0044614216846FFF7BEFA206895
:100E0000B0F1804F26D114480021026842F001025F
:100E10000260006800F0010005900F481038026879
:100E200042F0010202600068022200F00100059019
:100E300001200090CDE90121CDE903106946074862
:100E4000FFF702FB002211461C20FFF793FC1C2039
:100E5000FFF782FC06B010BD40380240000002409F
:100E600090F83D10012901D001207047022180F83F
:100E70003D100168CA6842F00102CA600068114969
:100E8000884214D0B0F1804F11D00F4988420ED063
:100E90000E4988420BD00E49884208D00D4988423D
:100EA00005D00D49884202D00C49884204D181689E
:100EB00001F00701062903D0016841F0010101603A
:100EC000002070470000014000040040000800407E
:100ED000000C0040000401400040014000180040A8
:100EE00070B5044690F83C000025012817D0012673
:100EF00084F83C60022084F83D002068826822F07B
:100F0000770222F47F4282600868502838D00DDCD6
:100F100020284FD005DC90B3102811D14AE00220E0
:100F200070BD302846D040280AD13BE060282FD041
:100F300070280DD0B0F5805F03D0B0F5005F12D0FF
:100F4000012584F83D60002084F83C00284670BDEF
:100F5000CB68D1E90121206800F002FB206881689C
:100F600041F0770109E0CB68D1E90121206800F068
:100F7000F7FA2068816841F480418160E1E719E077
:100F8000CA684968206800F0FDFA5021206806E030
:100F9000CA684968206800F047FB6021206800F0BB
:100FA000E9FACEE7CA684968206800F0EBFA402108
:100FB0002068F4E7226801461046F0E770472DE903
:100FC000F041054690F83C0000260C46012810D060
:100FD000012085F83C0072B1042A1CD0082A2CD0CC
:100FE0000C2A50D00126002085F83C003046BDE890
:100FF000F0810220FBE7D4E90012E368286800F0E2
:10100000D3FA2868816921F00C018161286881691F
:10101000A26811430FE0D4E90012E368286800F0E9
:1010200015FB2868816921F4406181612868816924
:10103000A26841EA02218161D5E72868D4E9002C41
:10104000277B016A21F480710162C169036A21F082
:10105000030141EA0C0121F0F00C39074FF420673D
:101060004CEA116123F4206307EA02221A43C161AA
:1010700002622868C16921F00C01C1612868C16958
:10108000A268114328E02868D4E90027E168036AD0
:1010900023F480530362D0F81CC0036A2CF4407C14
:1010A0004CEA07274FF6FF7C27F470470CEA013122
:1010B00039434FF4204723F4204307EA02321A430E
:1010C000C16102622868C16921F44061C161286878
:1010D000C169A26841EA0221C16184E710B5040038
:1010E00003D094F83D0010B107E0012010BD0020AE
:1010F00084F83C00204600F01EF8022084F83D00F1
:10110000211D206800F0C8F9012084F8460084F809
:101110003E0084F83F0084F8400084F8410084F8E1
:10112000420084F8430084F8440084F8450084F8C1
:101130003D00002010BD704770B50446006801698D
:101140004FF00005C943890715D4C168C943890711
:1011500011D4E91E01610120207720688069800791
:10116000204602D0FFF72AFF04E000F098F820465E
:1011700000F096F8257720680169C943490717D41C
:10118000C168C943490713D46FF00401016102200B
:1011900020772068806910F4407F204602D0FFF756
:1011A0000DFF04E000F07BF8204600F079F8257789
:1011B00020680169C943090716D4C168C9430907F2
:1011C00012D46FF008010161042020772068C06903
:1011D0008007204602D0FFF7F1FE04E000F05FF840
:1011E000204600F05DF8257720680169C943C906EB
:1011F00017D4C168C943C90613D46FF01001016147
:10120000082020772068C06910F4407F204602D073
:10121000FFF7D4FE04E000F042F8204600F040F86A
:10122000257720680169C943C90708D1C168C94346
:10123000C90704D1891E0161204600F033F82068F7
:101240000169C943090609D4C168C943090605D41F
:101250006FF0800101612046FFF752FD20680169AF
:10126000C943490609D4C168C943490605D46FF08A
:1012700040010161204600F023F820680169C9435C
:1012800089060BD4C168C943890607D46FF02001D1
:1012900001612046BDE87040FFF733BD70BD704767
:1012A000704700000449884204D14FF400410348CC
:1012B000FFF7E4B97047000010000020000402406E
:1012C0007047FEE770B586B014216846FFF755F801
:1012D0001A480024016841F004010160016801F02E
:1012E00004010591016841F080010160016801F08D
:1012F00080010591016841F001010160016801F080
:1013000001010591016841F00201016000680C4E85
:1013100000F002004FF400450590002229463046B7
:10132000FFF7B4F901200095CDE901046946304684
:101330000394FFF789F806B070BD00003038024012
:101340000004024010B58AB0002423480494059498
:1013500006940794089409940094019402944FF021
:1013600080410394016041F61F41C0E9011442F23B
:101370001071C0E9031480218161FFF70BFD08B1F2
:1013800072B6FEE74FF48050049004A91248FFF7AC
:10139000A7FD08B172B6FEE70F48FFF79FFE08B140
:1013A00072B6FEE7089408A90B480994FFF7AAFC57
:1013B00008B172B6FEE70120CDE900400294002298
:1013C000694605480394FFF7FAFD002801D072B67C
:1013D000FEE70AB010BD000010000020FEE7FEE7A7
:1013E00070477047FFF75EB930B593B0302168465B
:1013F000FEF7C3FF14210CA8FEF7BFFF1D48002510
:10140000016841F080510160006800F08050119047
:101410001948016821F4404141F4804101600068AD
:10142000022400F44040119001200090000401903B
:101430008001CDE9064008AA0420482182E8130073
:101440000B906846FFF792FA08B172B6FEE70CA956
:101450000F2081E831004FF48050CDE90F050221C3
:101460000CA8FFF7B9F9002801D072B6FEE713B057
:1014700030BD000040380240007000400248016862
:1014800041F470010160704788ED00E00148FFF70A
:1014900053BE000010000020F0B50268254C264D18
:1014A000264E274F274B4FF0804CA04209D0604575
:1014B00007D0A84205D0B04203D0B84201D098422C
:1014C00004D122F0700E4A6842EA0E02A0421BD0FC
:1014D000604519D0A84217D0B04215D0B84213D0F9
:1014E000984211D0184DA8420ED0184DA8420BD0EA
:1014F000174DA84208D0174DA84205D0164DA84256
:1015000002D0164DA84203D122F44075CA682A437E
:101510004D6922F080022A4302608A68C2620A682A
:101520008262A04201D0984201D109690163012180
:101530004161F0BD0000014000040040000800408F
:10154000000C004000040140004001400044014004
:101550000048014000180040001C004000200040EE
:1015600010B5846842EA032224F47F440A432243EC
:10157000826010BD826822F070020A4342F00701C7
:101580008160704710B5036A046A24F001040462A4
:10159000846924F0F00444EA021423F00A020A43A6
:1015A0008461026210BD000070B5046A24F0010479
:1015B00004628469056A154EB04214D0B0F1804FC0
:1015C00011D0134EB0420ED0124EB0420BD0124E7C
:1015D000B04208D0114EB04205D0114EB04202D0F8
:1015E000104EB04203D124F00304144301E044F050
:1015F00001041A0724F0F00444EA126225F00A03F9
:1016000001F00A0119438261016270BD00000140CE
:101610000004004000080040000C004000040140AD
:10162000004001400018004010B5036A23F0100389
:1016300003628369046A23F4704343EA023224F0AC
:10164000A00343EA01118261016210BD30B5046A52
:1016500024F0100404628469056A24F4407444EAA6
:10166000022222F470444FF6FF7202EA0332224350
:10167000A02425F0A00304EA01111943826101624C
:1016800030BDFEE70907090E002804DB00F1E02069
:1016900080F80014704700F00F0000F1E02080F89F
:1016A000141D7047FFF706F8FFF79EFEFFF70AFECE
:1016B000FFF748FE0148FFF7D3FBFEE710000020CC
:1016C0004FF04070E1EE100A70470000000000008B
:1016D000000001020304060708090000FC160008C8
:1016E0000000002010000000E80100080C170008AE
:1016F00010000020A80600000402000801000000FD
:0C17000010000000000000000024F400B5
:04000005080001AD41
:00000001FF
